:02000002B0004C
:1040000000400B008C9F0B00000006000D00050215
:084010000401A30F00000000F1
:0440180050900B00B9
:1040200009480A49884208B505D0094A824202D0A7
:10403000121A04F05BFF0748074A0021121A04F025
:1040400063FF014808BD00BFC4E00320F89E0B00D9
:1040500030E1032030E10320EDE7032070B5074E87
:10406000074C03F0FFFDA41BA4080025AC4200D1BF
:1040700070BD56F8043B98470135F7E7AC9E0B003E
:10408000D09E0B0000F0B0B808B500F0D5F8BDE840
:10409000084003F09FBD03F0B3B903F0B1B903F0DA
:1040A000B7B9000008B5034A03490C2003F0D2F861
:1040B000FEE700BF756F0B0064900B000078B0FA4C
:1040C00080F0400970470123037070477047037CFC
:1040D00013F008031EBFC36A406A1B1A002BACBF53
:1040E00018466FF0004070477047103001F0A8BCD0
:1040F000103001F0C6BB07B501220DF107011030E9
:1041000001F011FB01280CBF9DF807004FF0FF30B4
:1041100003B05DF804FB103001F01CBD10B5102198
:104120000446FFF7BCFF204610BD10B534210446FD
:10413000FFF7B5FF204610BD70B50C1E06461546AC
:104140000BDA0A2A09D12D2103F058FB6142EAB2A9
:104150003046BDE8704003F06ABB2146F7E707B57B
:1041600001228DF8071010300DF1070101F0F2FC6B
:1041700003B05DF804FB0EB403B503AB002153F8A4
:10418000042B019303F063FC02B05DF804EB03B071
:104190007047000073B5044608462279A36832B11F
:1041A000A3B90B4902B0BDE8704003F023BB094A34
:1041B000267B094D0949647B012E18BF2946CDE9AC
:1041C00000140749FFF7D7FF02B070BD054AEFE7BB
:1041D0008A900B00E0900B0086900B0082900B0001
:1041E000A0900B0079900B0008B5104800231946E9
:1041F0001A46406803F0ACF841F2883003F0A4FCA2
:1042000003F038FE4FF4165103F028FE03F032FE9F
:10421000074903F002FB074800F064FE054802F07E
:1042200059FBBDE80840034802F0C2BDD8E60320B0
:10423000BD900B0068E103202DE9F04F2DED028BBE
:10424000AD4E337893B03BB1012B00F0098113B030
:10425000BDEC028BBDE8F08FA84DA94EDFF8ECB2A3
:1042600033600FF28429D9E9008900222A6033687B
:10427000632B00F3C780122004F04DF807EE900A7C
:10428000F8EEE77A9F4C17EE900A04F079FA98A3BB
:10429000D3E9002304F0CCFA04F0C2FD04F070FA74
:1042A00042464B4604F0C4FA04F0BAFDD5ED007A5C
:1042B00008EE100A77EE887A0027C5ED007A03F041
:1042C000D9FDB0EE480A022103F0B2FB204600F00F
:1042D00032FE204602F0FEFA2046012100F0B3FD36
:1042E0004FF00113C4E904738749204603F095FA9F
:1042F00003F010FC0A2201462046FFF71DFF20466E
:1043000003F07FFA8149204603F087FA0221B0EEDC
:10431000480A204603F08CFB204602F049FD7C4C05
:1043200006974FF47A7307937A4B059304F58C6ADA
:10433000794B099701938DF8087001AB012705228D
:1043400004F26C415046CDF80CB0ADF8107001F09D
:104350003DFF58B3C4F800A004F23C4001F0A6FBB6
:104360003946204601F0DCFD04F23C470146C0B16D
:10437000674901F23C4001F0D0F9B8B194F83C34FF
:1043800013F0700F12D0654B654A1F60654944F207
:10439000022309A801F091FB70B903F06BFD62499B
:1043A00007E0204601F0BCFD0028E1D103F062FDEA
:1043B0005E4903F032FA4AE703F0ACFB0A220146F9
:1043C00005A8FFF7B9FE5A4905A803F013FA02F051
:1043D000E1FD0A22014605A803F029FA544905A87F
:1043E00003F008FA0221B0EE480A05A803F020FB0A
:1043F00009A801F05BFB642003F0A6FB33680133DE
:10440000336034E707EE903AD5ED006A494CF8EE98
:10441000E77A86EEA77A84ED007A03F02BFD0A2274
:104420003168FFF789FE03F025FD414903F0E2F909
:1044300003F020FD95ED000A022103F0DFFA03F0FE
:1044400019FD3B4903F0D6F903F014FD94ED000A81
:10445000022103F0EDFA02F09DFD374B1860F6E6FD
:1044600003F008FD354C364903F0D7F94FF4FA70E4
:1044700003F06AFB237D002B7DD002232372236887
:10448000DB68CBB19A88012A06D09B68F9E79B6864
:1044900093B19A88012AFAD19A89022AF7D19A739C
:1044A000237D002B67D02368DB68002B50D09A88CF
:1044B000042A74D09B68F8E72249102003F0F8FF23
:1044C000054600286ED01022002104F01DFD1E4B71
:1044D0002B600123AB802369AB600223AB81AB73FC
:1044E0002561DDE7AFF3008065934D36D964634005
:1044F0006666666666664A3F6CE60320DCE103207A
:10450000E0E1032068E10320CB900B00D2900B0088
:10451000E8E1032064910B0050910B0078E6032042
:10452000E1900B0024E6032002910B00EE900B00BB
:1045300024910B00D8E1032070E6032050E1032012
:1045400026910B00149E0B001000030080F0FA026D
:104550001549102003F0ACFF054618B310220021C6
:1045600004F0D2FC114B2B600423AB802369AB60B9
:104570000F4BEB60256105A80E4903F0ABF80598D9
:1045800008B102F045FF03F075FC0B4903F032F966
:1045900002F000FD094B18600023337057E6044A0F
:1045A000DA60E8E72575E6E7149E0B0010000300CB
:1045B0002004360050E1032035910B0070E6032003
:1045C00037B5274C274D6422C4F86024264AC4F826
:1045D0007024002301226360C4F83C34C4F86834BA
:1045E00084F87424C4F87834A4F87C342978BFF3B0
:1045F0005B8F11400BD128460191FFF75FFD0199B8
:1046000028B11A4802F078FF2846FFF75CFD174BE7
:10461000C4F86C340721164800F036FC154B164AD6
:104620009A600024C3E90044022002F02BFE2146D8
:10463000012002F037FE2146104803F09BFA214684
:104640000F4802F00CFF0F4B1A1D1A600E4A5A60F9
:104650000122C3E902441C611A7503B030BD00BFDA
:10466000E8E1032030E1032050910B0034E1032006
:1046700068E103203CE103200000FFFF48E1032044
:10468000E4E1032050E10320100003002DE9F04F86
:1046900085B01F46BDF93880BDF83C30A8EB020953
:1046A000A7EB010AB9F1000FB8BFC9F10009BAF1CF
:1046B000000FB8BFCAF1000AD14583460C46154623
:1046C00004DD3A462C4647460D469046BC4205DD81
:1046D0002A464546904622463C4617463E1BB2B205
:1046E0000092A8EB050282EAE271A1EBE271C6F347
:1046F000C03202FA86F64545B4BF01224FF0FF32C0
:10470000019176100292BC421CDCDBF8002003937E
:10471000D145D2F81880C7BF294622462A462146ED
:104720005846C047019A039BB61AB1B236B2002E62
:1047300005DA029A1544009A56182DB236B20134A1
:1047400024B2E0E705B0BDE8F08F704710B404680C
:104750002469A4465DF8044B604730B40468BDF892
:1047600008500295A46BA44630BC604730B404687E
:10477000BDF808500295E46BA44630BC604770B4A5
:10478000BDF90C50BDF810600468CDE90356246CE7
:10479000A44670BC60472DE9F3411C460368BDF890
:1047A00020805B6905461646013C34440F4624B21E
:1047B00098472B68CDF8048000949C6A28463B46B5
:1047C00032463946A0472B68DB6A284602B0BDE86E
:1047D000F04118472DE9F3411D460368BDF82080DC
:1047E0005B69044617460E469847CDE90078226873
:1047F0006B1E3344956A20461BB23A463146A847A1
:104800002368DB6A204602B0BDE8F04118472DE975
:10481000F3471E460368BDF928905B69BDF82C80FC
:104820000C460546174698472644B4422B680BDAD7
:10483000CDF80080D3F820A021464B463A462846C2
:104840000134D04724B2F0E7DB6A284602B0BDE865
:10485000F047184713B502680191B0F90E100091A6
:10486000146CB0F90C3000221146A04702B010BD04
:104870002DE9F74399421646BDF92870BDF82C90F2
:10488000026880460D461C4613D1BE42C8BF33465F
:10489000CDF82890C4BF3E461F467B1C946B9B1BE3
:1048A0001BB2324629464046A44603B0BDE8F04359
:1048B0006047BE420AD19942C2BF0B4625461C46FC
:1048C000631CCDF82890D46B5B1BE9E753699847CC
:1048D000CDE90079D8F8003040469F6A3246234639
:1048E0002946B847D8F80030DB6A404603B0BDE837
:1048F000F04318472DE9F3471D460368BDF82C80A7
:104900005B69BDF9289004460F4616469847236810
:10491000CDF80080D3F824A032462B4639462046F5
:10492000D0472368CDF8008009F1FF323244D3F834
:1049300024A039462B46204612B2D0472368CDF832
:104940000080D3F820A032464B4639462046D04757
:104950006B1ED9192368CDF800801D6A20464B468E
:10496000324609B2A8472368DB6A204602B0BDE898
:10497000F0471847704701F00303B0F90A20837627
:10498000C907B0F9083059BF8381C2818281C381D0
:104990007047000030B54281C281074A074D01814E
:1049A000002481814FF0FF31C0E9051244600560A9
:1049B00004610477046230BD010100018C960B0094
:1049C0002DE9F04F89B0CDE902120268BDF94880A7
:1049D0000493BDF94C3052690593BDF850A00446CC
:1049E000904718F107024FF0000648BF08F10E0289
:1049F0004FEAE20B01963546039B019ABDF904107C
:104A00009A18059B8B4212B227DD049B33444FF06A
:104A1000000906930FFA89F080451FFA89F117DD26
:104A20004F0705BF069BC0106D001D5C18BFEDB29F
:104A30002B060AD5029B206807921944836909B2A4
:104A40001F4620465346B847079A09F10109E1E796
:104A5000019B013301935E44CEE72368DB6A204665
:104A600009B0BDE8F04F18472DE9F04F2DED028B4E
:104A700091B01646026ABDF874809DF878509DF892
:104A80007C4003911F46BDF8703004938346002A92
:104A900040F0C580B0F90C308B4240F34C81B0F946
:104AA0000E30B34240F34781062313FB0513002B5E
:104AB00040F3418106EBC403002B40F33C81037FAC
:104AC0001BB9AF2F84BF0137FFB2DBF80030584667
:104AD0005B6998470522099200220592984A07EBE4
:104AE0008703D3180C93B3B20693059A0C9B9B5C77
:104AF0000793ABB20B93BDF80C300893039B02FBFA
:104B000005F919FA83F90FFA89F308EE103A082328
:104B10000A93039B02EB030A4FF000090FFA8AFA8B
:104B2000079ADBF80030D20752D5012D1FFA89F21F
:104B30003ED1012C3CD19B6906991F46049B0A4437
:104B400012B251465846B84709F101034FFA83F9AA
:104B5000079B5B0807930A9B013B13F0FF030A9333
:104B6000DED1059F01377BB20593099B013B13F012
:104B7000FF030993B9D1049B43450FD0012DDBF806
:104B800000303BD1012C39D10899CDF80080053196
:104B90001C6A3246082309B25846A047DBF80030A9
:104BA000DB6A584611B0BDEC028BBDE8F04F1847E8
:104BB000069914FB02F20A44049901910094DB69FE
:104BC00018EE101A1F4612B22B465846B847BBE7DC
:104BD000049A4245B8D0012D1FFA89F207D1012C61
:104BE00005D19B6906991F460A444346A8E70699E2
:104BF000CDF8048014FB02F20A44DFE70B9ACDF8EB
:104C0000048002EB8201089AE4000A4411460094F1
:104C1000DC6932462B4609B25846A047BEE7137AF4
:104C2000516812680B92FF1AFFB201EBC70331F80B
:104C3000372006929A780992DA780C92012D93F92E
:104C4000052093F906A00A9201D8012C57D9BDF985
:104C5000283008930FFA8AF30793DBF800305846A0
:104C60005B699847B3B24FF000080E931AFA86F3C7
:104C7000C14647460F930C9B9F428FD2079B0E9ACB
:104C80003B4403FB0423002205920F9A1BB202EB64
:104C9000070A08EE103A0FFA8AFA4346099A05996C
:104CA000914241D25A1CD2B25B070D9207D1069BAA
:104CB00006990B9A01339BB212F80190069319F0F2
:104CC000800F12D0012DDBF80030BDF80C101AD186
:104CD000012C18D10A9A9B691144059A11441E4669
:104CE0005246049B09B25846B047059E0136F3B2BE
:104CF0004FEA490905935FFA89F90D9BCEE7002336
:104D0000CDE90733A9E70598089A024402FB05118B
:104D1000049ACDE90042DB6918EE102A1E4609B25A
:104D20002B465846B047E0E7099B013798445FFAA5
:104D300088F8FFB29FE711B0BDEC028BBDE8F08FA1
:104D400084910B00F0B5026A85B004460B46002A38
:104D500034D10A2908D1438A0282427E03EBC2037E
:104D60006382012005B0F0BD0D29FAD0E17E007EFE
:104D7000657E71B1B4F91060062111FB0061B4F9D0
:104D80000C60B142C1BFB4F91210228201EBC5021E
:104D90006282E28A0192A28A0092CDE90205B4F908
:104DA0001220B4F910102046FFF75EFE237E228AFF
:104DB00003EB430302EB43032382D2E70A2907D123
:104DC00000230382417E927A438A01FB0233C7E7C4
:104DD0000D29C6D0157AA942C3D3517A9942C0D3BE
:104DE00051685D1BEDB201EBC505A87828B3E978E1
:104DF00019B3E17E267E677E91B195F905100844CE
:104E0000B4F9101006FB0011B4F90C00814207DD63
:104E100000202082B4F91210927A02FB07126282FB
:104E2000E28A0192A28A0092CDE90267B4F91220C7
:104E3000B4F910102046FFF717FE2979227E238A45
:104E400001FB0233B8E7012938BF01210176417621
:104E50007047000010B5064B03600446006D08B1B2
:104E600002F0B8F8204601F0C3FB204610BD00BF99
:104E7000E4960B0010B50446FFF7ECFF20467021C6
:104E8000FFF70DF9204610BD30B585B004460D463C
:104E900003F0C6FA104A1149CDE901214FF0FF3263
:104EA0008021034600922046202201F019FC0C4B81
:104EB00023600023C4E9143504F1580000F054F8CD
:104EC00004F1600000F050F804F1680000F04CF8C4
:104ED000204605B030BD00BF801A0600A086010044
:104EE000E4960B0013B50446503002F06BF8636D86
:104EF000D90705D50222042104F1580000F048F832
:104F0000636D9A0705D50022032104F1600000F0CB
:104F10003FF8636D5B0705D50222114604F1680076
:104F200000F036F8012300933C220221204601F0D4
:104F3000DFFC02B010BD10B5436DD907044602D5A1
:104F4000583000F032F8636D9A0703D504F1600021
:104F500000F02BF8636D5B0705D504F16800BDE830
:104F6000104000F022B810BD00210A22C0E9001252
:104F70007047002310B50446C171837188B203F0F5
:104F8000B7F908B10323A37102F004F8206010BD43
:104F900038B50C4605461146A0B203F07FF921460C
:104FA0002846BDE83840FFF7E4BF38B50446C0796D
:104FB00003F09EF9A579003825F0080318BF0120F9
:104FC000C5F340058542A3710AD001F0E3FFA37940
:104FD000206083F00203A371A079C0F3C00038BD44
:104FE00001F0D8FF2368C01AA3889842F4D3A379AC
:104FF00003F00103AB42EFD001F0CCFFA3792060B6
:1050000083F0010343F00803E5E7042904D800EB2B
:105010004100B0F8010070470A299BBF01F1FF3140
:1050200000EB41000131C08884BF00EB4100808863
:10503000704710B50446243000F064FE28B104F532
:105040000C70BDE8104000F05DBE10BD411E00F1C7
:105050000A030020420842EAC01011F8012F52FA58
:1050600080F08B42C0B2F5D1704700002DE9F047C7
:10507000064610F8013B202BFAD06A4D8E600024C2
:10508000335DC3B12F2B16D05C2B02D10020BDE8BD
:10509000F087A3F12200C0B21D2803D825FA00F042
:1050A000C007F3D403F0BF003C28EFD0203B5E2BB9
:1050B000ECD80134E4E733191846074610F8015BD1
:1050C000202DFAD02F2DF8D017604CB113F8012DF8
:1050D0002E2A01D0202A01D1013CF6E7FF2CD5DC95
:1050E0004FF02033C1F811304C60C1F80D304B61E6
:1050F0004FF0000816F808302E2B01D0202B02D1DB
:1051000008F10108F6E7B8FA88F04009651E6B1C43
:1051100002D0735D2E2B14D14FF0000907274A46A9
:10512000CA464FF0080EA04568DA16F80830202B62
:1051300003D02E2B07D1A84512D0002008F101087A
:10514000F1E7013DE3E7222B08D07C2B06D0A3F149
:105150002A0CBCF1050F0AD82D2B12D0A8455BD123
:105160000A2F4AD00A2708224FF0100EE6E7A3F1D3
:105170003A0CBCF1050FF1D9A3F15B0CBCF1020FA5
:10518000ECD9A3F1210CBCF15D0FE7D8A845E7D01D
:10519000BA4230D8A3F1610CBCF1190F1AD8203BE8
:1051A0004EEA0909DBB25FFA89F902F1010C5FFAF4
:1051B0008CFC0A44BCF1060F537301D881F80CC073
:1051C0006246BBE7A84518DCA8460A2708224FF02C
:1051D000100EB2E7A3F1410CBCF1190F98BF4EEAD3
:1051E0000A0AE2E70B7B0120087019447E234B7307
:1051F00031238B734BE70A2FE4D100204B7B202B0C
:105200003FF444AF0028EDD01AEA090F18BF4FF061
:10521000020981F800903AE7BA42ECD800205F23F7
:10522000C3E700BF010100312DE9F84391F80C906C
:1052300006460C4602257E2701F10D086168A2682A
:105240006B189BB21144914206D012F8010B03EB8C
:10525000431343409BB2F6E7B9F1030F28BF4FF069
:10526000030909F10402D2B203F00F01A018013AB8
:105270000929D2B294BF30313731914541734FEA99
:105280001313F1D104EB090300215F73304600F0E2
:105290002AFB0121304600F007FB014628B970784F
:1052A000B0FA80F04009BDE8F88303786BB1C37AA7
:1052B0001B07EED40B22404603F008FE0028E8D17D
:1052C0000135ADB2642DB9D1EDE70120EBE7000067
:1052D0002DE9F04F2DED028B8BB00D4606930B7828
:1052E000079013F0700F174605D100200BB0BDECEE
:1052F000028BBDE8F08F079B1B78002BF5D153681C
:10530000059313789C071FBF059B0C330D22B3FB3D
:10531000F2F31ABF0133DBB20123002128460393C5
:1053200000F0E1FA07F10D034FF0000B08EE103A20
:10533000DA465C465E46CDF810B0D9466B6901216D
:105340002846C3F34F1800F0AFFA0346002871D186
:105350006B78002BC9D1069B9A05C6D503F00303D1
:10536000013B012BC1D8049B002C08BF434604938A
:10537000039B9C42C0F0F180B9F1000F40F00A811C
:10538000049B2846590100F0AEFA0028ADD0039BDB
:1053900003F1FF395FFA89F94E464FF0000A4FF0EA
:1053A0000F08002E00F00D810021284600F07CFA45
:1053B0000446002899D0AA6892F824304E4543F05C
:1053C00001030CBF46F0400BB34682F8243080F84E
:1053D00000B080F80B8080F80CA007F10D00FFF7FB
:1053E00035FE84F81AA0607384F81BA00BF01F032D
:1053F0000D22013BD7F808C053430022059999427A
:1054000040F2D0801CF80310042A5FFA82FE02F1F9
:10541000010000F2CD8004EB4202A2F801100D2839
:1054200003F101030246E9D1013EF6B2B9E74FF0BC
:10543000010983E70278E52A00D07AB90499002CA3
:1054400008BF4146049103998C423CBF0134E4B249
:10545000002A80D0E52A05D100266FE703998C4207
:1054600038BF00242E2AF7D0D97A0F294AD116BB8B
:1054700012F040063FF462AF02F01F0693F80DB041
:10548000B2460D220AF1FF3802FB08F8059A4245A0
:10549000E2D9A2EB08020892002202EB080109916E
:1054A0001846D1B2FFF7B1FD08998A420DD1002804
:1054B00018BF002642E70AF1FF3A5FFA8AFA52451E
:1054C000CAD15A7B5A45DCD0C6E7FF28C4D85FFA58
:1054D00080FEAEF141011929B9689CBF0EF1200090
:1054E0005FFA80FE08460999415CA1F1410CBCF1CC
:1054F000190F9CBF2031C9B27145ADD101320D2ABF
:10550000CBD11BE70807A7D45EB1BAF1010F7FF436
:10551000ECAE1846FFF79AFD58457FF4E6AEB1466B
:105520000EE018EE101A0B22184603F0CFFC0028EC
:105530007FF404AF97F8009019F001097FF477AF7A
:10554000069B19053FF5D1AE069B0798CDF8009054
:105550004246294600F00AFAC8E60021284600F033
:10556000A3F9A0B96B78002B7FF4BFAE284600F0FA
:1055700087F800283FF4B9AEAB681B79012B3FF6E2
:10558000FBAE039B1034E4B2A342EFD8F4E601343F
:10559000E4B2EDE639462846FFF746FE00287FF4E0
:1055A000EFAEA2E614BF4FF0FF31002189B22BE726
:1055B000BEF10A0F94BF04EB420204EB400291805B
:1055C0002DE731462846D5F8148000F06DF90446E1
:1055D00000283FF48AAE2022314603F095FCD7F82C
:1055E0000D302360D7F811306360B7F81530238190
:1055F000FB7DA3723B7803F0180323730F4B1B68EA
:105600009BB104F10E0104F110009847238A6382D4
:105610002383E389E382AA6892F8243043F00103EC
:10562000C8F34F1882F824308EE7212323742823EF
:1056300063740823A673E373E8E700BF74E60320EE
:1056400038B504460D462422002103F05DFCA56018
:10565000EB79102B03D0202B06D0002038BD20235F
:1056600001202370A070F9E74023F9E783780169EE
:1056700043F00403837000F11002806800F0F8BB6F
:105680002DE9F041017811F02005044603D00026F1
:105690003046BDE8F0814269174B9A42F7D2FFF7D6
:1056A000E5FF06460028F2D02169A06800F075FBEE
:1056B0000746A06805223946243000F04BFB80469F
:1056C0000028E4D029464FF4007203F01DFC0125A8
:1056D000A3681A79AA4209D918684246E91900F064
:1056E000A6FE0028D3D00135EDB2F1E7636903EBE4
:1056F00042236361CCE700BF00FE1F0010B50446E3
:1057000080680A462430A16900F024FB20B1A388F8
:1057100003F00F0300EB431010BD03780BB9FFF744
:105720008FBF002070472DE9F74F03780446884665
:105730001546002B5DD08278D1075AD51A072DD592
:10574000C36942699B1A9D4228BF1D462E464FF0F1
:10575000000904F1100B002E00F08F80227863699D
:10576000A0689706C3F3080A4FEA53211FD5006AC1
:105770000144A068BAF1000F42D1B6F5007F3FD3D3
:10578000C36A99423CD0B6F5806F52D20068424657
:1057900000F0C4FD68B34FF4007744E09B06D5D514
:1057A00083681A894369C3EB42139BB2CBE790F835
:1057B000059009EA0109BAF1000F08D1B9F1000F0B
:1057C00005D15BB951064CBF036A236A2361216985
:1057D000A06800F0E2FA09EB0001CAE721695A4625
:1057E00000F0E1FA002804DBF1D1237813F0700F08
:1057F00043D1637843F0020363704FF0FF303DE024
:10580000CAF50077B7424FF0000200F1240028BF2C
:10581000374600F09FFA0028EBD000EB0A013A4629
:10582000404603F063FB63693B44B8446361F61B85
:1058300091E7227892064FEA562A06D40279A2EB23
:105840000902D2B2924528BF924699424FEA4A27AE
:1058500008D2A06853460068424600F0A7FD002821
:10586000E1D1C6E753448B42F3D92430019100F0D3
:1058700049FA01990028ECD1BBE7A81B03B0BDE8A9
:10588000F08F73B501220DF10701D0E904560446EB
:10589000FFF749FF01280ABF9DF807004FF0FF30CE
:1058A000C4E9045602B070BD37B5436913F4F07F04
:1058B0000446C3F3431500D099B901220DF1070145
:1058C0002046FFF730FF40B2012802D0002003B08D
:1058D00030BD63691F33A0686361303000EB451051
:1058E000F5E72033F7E72DE9F04102780769044630
:1058F0000D4662B14069884202D019B921616561E3
:10590000012006E0160706D5E3698B420BD227611A
:105910000020BDE8F081910605D5A3681B89B5EB91
:10592000431FECD9F3E7D4F808C09CF80660431E87
:1059300006F109016E1ECB40CE40B34200D898B9A3
:1059400053064CBFDCF82030236A236104F11008B1
:10595000002ED4D02169A068424600F024FA002825
:1059600006F1FF36F4DCD2E7F61AEFE7F8B50F469A
:1059700004461546002124221E4603F0C5FAB868E5
:10598000A060A58005F00F053B6AE3606A0100EBAB
:10599000451595F83B301F0744D403F017032370D7
:1059A00095F83B1011F0180F04BF43F00803237063
:1059B0009DF81830E37006F00303012B2CD0022B66
:1059C00028D07BBB71052DD40123A370A1788B0750
:1059D00004D52378DF0625D4DD0723D4B31123F0C3
:1059E0007F0306F008052B430B43A370C36AA36132
:1059F0008318B3F84420B3F84A1041EA0241720513
:105A000013D559B9A37843F00403A370730410D4D9
:105A10000120F8BD0323D8E70223D6E700F063FA9C
:105A20000028EFD100202070F3E72162DB6CE361F6
:105A3000ECE7E1692046FFF756FF0028E8D1F1E7DF
:105A400038B5037804460BB9012038BD83785A076E
:105A500023D50121FFF752FE054628B9637843F0AC
:105A6000010363700020F0E70378E52BF6D023787C
:105A70001B0744BFE369C361236A4383638C83824A
:105A8000094B1B682BB100F11601183098472B8B7E
:105A90006B82A37823F00403A370A068FFF7C9FA10
:105AA0000028DBD0D0E700BF74E6032010B5044621
:105AB000FFF7C6FF0023237010BDF0B593B01F465B
:105AC000002309930378019206460C4613B1002087
:105AD00013B0F0BD0B7813F0700FF8D013782F2BA4
:105AE00012D1019A13782F2B02D101320192F8E7DB
:105AF000A1681BB93046FFF710FEE9E709A8FFF7D8
:105B00009FFD0028E3D009AC019801AA03A9FFF783
:105B1000ADFA0028DBD0019B1B789BB1002303AAC0
:105B200021463046FFF7D4FB0028D0D035460FCDB4
:105B300009AC0FC40FCD0FC42B6823603046FFF7AC
:105B4000B5FFE0E73B4603AA21463046FFF7C0FB1E
:105B5000BEE700002DE9F04703788946190704469F
:105B600017465BD583789A0758D51B0751D46369CC
:105B7000DB43BB4252D3B84604F1100A6669B8F160
:105B8000000F00F09180A0684379C6F3080513EA7E
:105B900056260ED16DB92169002946D0524600F033
:105BA00002F900283ADB04D12046FFF75FFD002808
:105BB00034D02169A06800F0F0F83118A06815B958
:105BC000B8F5007F3FD2C5F50076464528BF46466A
:105BD000002D36D16269E3699A4234BF0122052261
:105BE000243000F0B7F8C8B128443246494635445D
:105BF00003F07CF9B5F5007F04D1A068243000F0F3
:105C000081F858B1636933446361B144A8EB060875
:105C1000B4E7C169FFF767FE0028A8D1637843F0B5
:105C2000010363704FF0FF3050E0236A3BB9204618
:105C3000FFF71CFD0028F1D023692362B9E7236137
:105C4000B7E70122CCE7B8F5806FC26A1BD390F8A2
:105C500004C0ACEB0606F3B24FEA582E734528BFDA
:105C6000734691424FEA432607D31A448A4282BFC1
:105C70004FF0FF3280F82450C262A5684A46286877
:105C800000F04BFCBDE7914202BF4FF0FF3380F8BC
:105C90002450C362A3684A46186800F0C8FB002875
:105CA000BCD04FF40076ADE7E269A378B24204D2EB
:105CB000E66143F00403A37003E0084A1268002A77
:105CC000F7D194F90230002B02DB3846BDE8F087AB
:105CD0002046FFF7B5FE0028F7D19FE774E60320C2
:105CE00013B50446084659B1019103F043F92368FE
:105CF0000199DB680246204602B0BDE81040184713
:105D000002B010BD37B50378DA07044620D54368E2
:105D1000816800F10C021868019200F088FB019A7A
:105D2000054618B90025284603B030BD23789B07E7
:105D300004D4237823F001032370F4E7D4E901307D
:105D400019690144186800F072FB0028F1D1E9E7F5
:105D50000125E8E770B583688B4204460E46154678
:105D600009D0FFF7CFFF08B9002070BD6B070AD537
:105D700000232370A660227805F003052046154312
:105D800000F80C5BF1E7636804F10C021868314617
:105D900000F0C4FA0028EBD1E6E7837940690239C4
:105DA000994008447047012970B505460C461646CF
:105DB00002D84FF0FF3070BDC3698B42F9D3C3796D
:105DC000202B16D18169022201EBD41100F50C7051
:105DD000FFF7C0FF0028ECD004F07F0450F8243017
:105DE00023F07043EA699A4226BF33600120002005
:105DF000E1E7102BDDD1C1F30723816902221944A9
:105E000000F50C70FFF7A6FF0028D2D0E4B230F8FE
:105E10001430E7E7012938B50C46154601D80020B3
:105E200038BDC3698B42FAD3C379202B0FD1816966
:105E3000032201EBD41100F50C70FFF78BFF002853
:105E4000EDD004F07F0440F824500120E8E7102B47
:105E5000E5D1C1F3072381690322194400F50C70D1
:105E6000FFF778FF0028DAD0E4B220F81450ECE70E
:105E70002DE9F341C4688C4205460E46904601D395
:105E8000012701E00C460027EB690134A34202D24E
:105E9000C7B9EC68F4E7A64214D001AA2146284607
:105EA000FFF781FF00280DDBEED0019B002BEBD12B
:105EB00007B1EC606FF0704221462846FFF7AAFF59
:105EC000074620B90027384602B0BDE8F08116B970
:105ED000C8F80040F7E7224631462846FFF79AFF08
:105EE0000028F5D1EEE773B505460C4601AA214618
:105EF0002846FFF758FF061E10DB002221462846E1
:105F0000FFF788FF50B1EB68A34224BF04F1FF34D0
:105F1000EC60019C002EE9D102B070BD0020FBE7CF
:105F2000012370B50022C3604FF0FF330446C271F5
:105F300000F12406806280F82420C362C0F8340295
:105F400080F83022C0F838320D46B9B1042901D9A1
:105F5000002070BD11463046FFF7FCFE0028F7D048
:105F600000EB051393F8AE315B06F1D105F11B018F
:105F700000EB0110D0F80650002DE9D00022294690
:105F80003046FFF7E7FE0028E2D0B0F80B30B3F55B
:105F9000007FDDD1037C022BDAD1C389002BD7D05F
:105FA000417B21714B1E63710023A37109260123DC
:105FB000994207D0013ECBD0A2795B000132DBB21F
:105FC000A271F5E7C18A01B9416A2161C3892B44F5
:105FD000A361B0F81120228103EB41032362B0F8E2
:105FE0001110490101F2FF1103EB51236361B0F875
:105FF000132002B9026AE91AA3791144D9404B1C53
:10600000E36140F6F473994202D80C23E3719FE7F1
:106010004FF6F473994285BFC36A2362102320238D
:10602000E371012095E700F0CBBA00F0AEBA0000B2
:1060300070B50E4E0D46144600F0A4FF3368C01A2A
:106040000B4B984208D900F0A5FF0A4B186001F0ED
:10605000B7F900F097FF306000F09CFF80B2401B62
:10606000A042D4BF0020012070BD00BF7CE6032009
:10607000A086010028E7032038B5057A04464DB90B
:10608000406800F06BFA63682946187D02F017F942
:106090000123237238BD10B5037A04466BB14368FF
:1060A0000121187D02F00BF96068FF21FFF7BBFFAB
:1060B000606800F067FA0023237210BDF8B504464B
:1060C0000D46164600F066FF87B26068FFF7ADFF29
:1060D000FF2860720ED14FF47A7239462046FFF7DE
:1060E000A7FF0028F1D0552320462370FFF7D3FFE8
:1060F0000020F8BDFE2801D05023F5E76068324645
:10610000294600F047FA607208B16023ECE7606846
:10611000FFF78BFF6068FFF788FF0120E9E770B5A4
:1061200004460E4600F036FF85B232462946204628
:10613000FFF77EFF30B96068FFF777FFFF28F4D1E3
:10614000012070BD0020FCE7F7B5037A01920446F8
:106150000D460BB9FFF790FF25B14FF4967120461D
:10616000FFF7DDFF606845F04001FFF75CFF0326A5
:1061700001AFB95D6068FFF756FF013EF9D2002D0F
:1061800060680CBF95218721FFF74DFF6068FFF71E
:106190004CFF0B256068FFF748FF0306607203D5CC
:1061A000013D15F0FF05F5D103B0F0BD70B5044613
:1061B0000D46164637210022FFF7C6FF3246294614
:1061C0002046BDE87040FFF7BFBF00002DE9F04159
:1061D00000250572057085724160044690461E4692
:1061E00000F0D8FE41460746606800F0BBF96368DE
:1061F000494A1D720125DA601D822046FFF73CFFE7
:1062000063682946187D02F05AF80A256068FF2164
:10621000013DFFF708FF15F0FF05F7D16368294638
:10622000187D02F04CF80A25002211462046FFF79F
:106230008BFF0128804618D0013D15F0FF0507D1DE
:10624000202320462370FFF726FF0020BDE8F081C1
:106250006068FD21FFF7E7FE4FF402786068FFF702
:10626000E4FEB8F10108F9D1DEE74FF4D572082158
:106270002046FFF769FF052814D184F80A8000251D
:10628000BFB22A4629212046FFF790FF0246D8B127
:106290004FF4FA6239462046FFF7CAFE0028F0D0D4
:1062A0004323CEE704256068FFF7BFFE013D15F0EC
:1062B000FF056072F7D1AA2804D10223A3724FF020
:1062C0008045DDE72523BCE7A37A022B18D13A21CC
:1062D0002046FFF739FF08B13723B2E76068FFF7C0
:1062E000A4FE00F0C000C02804BF0323A3726068AE
:1062F000FFF79BFE6068FFF798FE6068FFF795FE6A
:106300002046FFF7C8FE63683079B168B2891A8207
:106310001872D960012099E790D0030038B5837ACC
:10632000032B18BF490215460A4611210446FFF700
:106330000BFF30B1302323702046FFF7ACFE002561
:106340000BE029464FF400722046FFF7B7FE0546E2
:106350000028F1D02046FFF79EFE284638BD10B534
:10636000837A032B0A4618BF4A0212210446FFF71C
:10637000EBFE30B1312320462370FFF78CFE002066
:1063800010BD0120FCE710B500220C210446FFF7E8
:10639000DBFE30B1282320462370FFF77CFE00206F
:1063A00010BD2046FFF777FE0120F9E7F8B5044657
:1063B00016461F46FFF7D3FF68B10025ABB29F42D8
:1063C00006EB452109D94FF400722046FFF776FE0F
:1063D00001350028F2D10020F8BD2046BDE8F84084
:1063E000FFF7D1BF38B5044615464068FFF71BFEDE
:1063F0004FF400726068294600F0E6F86068FF21FB
:10640000FFF711FE6068FF21FFF70DFE6068FFF7E0
:106410000CFE607200F01F00052806D057232046AE
:106420002370FFF738FE002038BD0120FCE770B56F
:10643000837A032B18BF490215460A4618210446E1
:10644000FFF782FE064630B1322323702046FFF765
:1064500022FE00251FE02A46FE212046FFF7C2FF4C
:106460000028F3D04FF4FA612046FFF758FE0546A6
:1064700008B95A23E9E732460D212046FFF764FEAA
:1064800008B12923E1E76068FFF7CFFD0028F8D1C4
:106490002046FFF700FE284670BD13B501914FF46A
:1064A000FA610446FFF73BFE019A30B95B23237083
:1064B0002046FFF7F0FD002005E0FC212046FFF715
:1064C00091FF0028F4D002B010BD10B5837A032BE1
:1064D0000A4618BF4A0219210446FFF735FE30B1BB
:1064E000332320462370FFF7D6FD002010BD012086
:1064F000FCE738B54FF4FA610446FFF710FE054695
:1065000030B9562323702046FFF7C5FD284638BD15
:106510006068FD21FFF787FDF5E7F8B504461646EC
:106520001F46FFF7D2FF70B10025BD4206EB4521A3
:10653000204604D0FFF7B1FF28B10135F5E7BDE8EB
:10654000F840FFF7D6BF2046FFF7A5FD0020F8BDB5
:10655000014B01221A70704780E60320011D00687C
:1065600001F002B810B504460175006800F0CEFFD6
:10657000207D012101F092FE207D0121BDE8104027
:1065800001F09DBE006800F0D5BF0068FF2101F05A
:1065900059B8000037B51346074A00920025074C4A
:1065A000006825700A46294601F052F82378002B2E
:1065B000FCD0002003B030BD51650B0080E6032005
:1065C000006801F03FB8000037B51346064A009254
:1065D0000025064C006825702A4601F039F823781A
:1065E000002BFCD003B030BD51650B0080E60320CA
:1065F00010B5044B03600446C06A08B100F008FF00
:10660000204610BDDC9B0B0010B50446FFF7F0FFE1
:1066100020465021FDF743FD204610BD002910B54E
:106620004BDBB0F90C408C4247DD002A45DBB0F96A
:106630000E40944241DD847E022C1FD0032C26D0D4
:10664000012C04D10489D24314440A4621B2012BFF
:1066500023D0022B32D083BB002A13460489C06AA0
:10666000B8BFD31DDB1013FB041102F00702012396
:106670009340425C22EA030242541EE00489013C3A
:10668000611A4489D243224409B212B2DFE7448935
:10669000013C641A114622B2D9E7002A0489134644
:1066A000B8BFD31DDB1013FB0411C36A02F007004F
:1066B00001228240585C02435A5410BD002A1346FE
:1066C0000489C06AB8BFD31DDB1013FB041102F0AC
:1066D0000702012303FA02F2435C5A40CCE70000B0
:1066E00070B504461D460026FEF754F9114B236091
:1066F000666215B901F094FE0546FF2384F8333035
:1067000084F836309DF9103084F837300A4BA36393
:10671000012384F83C30059BA3644FF6FF72069B6F
:10672000A286C4E90A562664A4F84460E3642046BD
:1067300070BD00BFDC9B0B0050910B00F8B5044608
:10674000806A0D4690B194F9301001F0A3FCA06A64
:10675000036800219B689847A06A036829469B68E4
:106760009847A06ABDE8F84001F09BBC94F9353029
:10677000014698B201F0A3FD606A20B12946BDE848
:10678000F84000F05FBF0826802794F9330005EA3F
:10679000070180B201F093FD94F93400012180B229
:1067A00001F08DFD94F93400002180B201F087FDE5
:1067B000013E4FEA5707E8D1F8BD38B50446806A74
:1067C0000D4680B1A16C01F057FC002D204614BF8E
:1067D000A721A621FFF7B2FFA06A88B1E16CBDE84E
:1067E000384001F049BC606A18B104F1380100F08A
:1067F000BBFE94F93600002180B201F060FDE4E7B1
:1068000094F93600012180B201F059FD606A18B197
:10681000BDE8384000F08EBE38BD2DE9F84304468F
:10682000806A0D468F1840B394F9301001F032FCA5
:10683000A06A036800219B6898470126AF42A06ABE
:1068400017D01F2E0CD901F02CFC94F93010A06A3F
:1068500001F020FCA06A036800219B68984701268C
:10686000A06A15F8011B036801369B689847F6B2C9
:10687000E4E7BDE8F84301F014BC94F93530014673
:1068800098B201F01CFDBD4222D0606A15F8019B50
:1068900018B1494600F0D6FEF5E708264FF080080B
:1068A00094F9330009EA080180B201F008FD94F977
:1068B0003400012180B201F002FD94F9340000217E
:1068C00080B201F0FCFC013E4FEA5808E8D1DAE75B
:1068D000BDE8F883B0F90A30DA1D48BF03F10E02B3
:1068E000B0F90830C06AD2105A43002102F00CBB44
:1068F0002DE9FF411E46C36A9DF8288004460F46D5
:106900001546C3B12046FFF7E5FFB4F90A00B4F914
:106910000810202821DC202301222038CDE9013273
:1069200000EBD07073237339009301EBD171894B65
:1069300040F34F0221E0B0F90A30D81D48BF03F1FF
:106940000E00B4F90830C010584300F059FDE06261
:106950000028D7D104B0BDE8F0814038C0F3C03280
:1069600002FA80F240230120CDE90130522352394E
:106970000093794B01EBD1715210204641F34F0146
:10698000FEF71EF8A06A84F83170002878D0002D38
:1069900074D1B4F90A30202B0CBF3C253D2584F876
:1069A0003050B8F1000F01D001F06AFBFEB194F94C
:1069B000370000281BDB012180B201F06FFC94F945
:1069C0003700012180B201F07AFC012001F0BCF80F
:1069D00094F93700002180B201F071FC0A2001F027
:1069E000B3F894F93700012180B201F068FCA06A85
:1069F000002874D0A16C01F03FFB042257492046C7
:106A0000FFF70BFF61890139C9B22046FFF796FEF7
:106A1000534904222046FFF700FF94F93130012B3F
:106A20000CBF102114212046FFF788FE04224D4997
:106A30002046FFF7F2FEA3684B4A93425CD14B49D4
:106A400004222046FFF7E9FED9212046FFF776FE13
:106A500094F93130012B0CBF2221F1212046FFF7A0
:106A60006DFE204642490622FFF7D7FEA06A0028A5
:106A700063D0E16C01F000FB01206BE76DB28EE7A3
:106A800094F93500012180B201F008FC94F9360038
:106A9000012180B201F002FC94F93600012180B29C
:106AA00001F00DFC656A3DB1B8F1000F3FF47EAF17
:106AB000284600F02BFD79E794F93300012180B2DC
:106AC00001F0ECFB94F93400012180B201F0E6FB07
:106AD00094F93400294680B201F0F1FB66E7606A60
:106AE00018B104F1380100F03FFD94F9360000219F
:106AF00080B201F0E4FB80E71E4A93420ED11E49AA
:106B000003222046FFF789FE94F93130012B0CBF98
:106B10009F21CF212046FFF711FE95E7174A9342A8
:106B200092D1174903222046FFF777FE94F93130BE
:106B3000012B0CBF1021AF21ECE794F936000121A5
:106B400080B201F0BCFB606A002895D000F0F2FC36
:106B500092E700BFF4990B0034970B003C9C0B00AC
:106B6000409C0B00449C0B00800020004E9C0B00BE
:106B7000489C0B0080004000529C0B0060001000FD
:106B8000559C0B0070B5002ABDF810503DDBB0F9E4
:106B90000A40944239DD0029BEBF5B181BB20021B8
:106BA000B0F90840CE18A642C4BF631A1BB2002B2E
:106BB0002BDDC06AD61014FB0611014402F0070059
:106BC00001228240012DD2B216D0022D0BD0E5B9A0
:106BD000D243D2B20B44994217D011F8010B1040A6
:106BE00001F8010CF7E70B4499420ED011F8010BA4
:106BF000504001F8010CF7E70B44994205D011F819
:106C0000010B104301F8010CF7E770BDF0B5002946
:106C1000BDF8145076DBB0F90860B14272DA002A90
:106C2000BEBF9B181BB20022B0F90A40D718A7427A
:106C3000C4BFA31A1BB2002B64DDC2F3C404C76A2D
:106C400016FB041612F00702DBB207EB060423D092
:106C5000C2F10802D2B22D4993423CBF4FF0FF0C63
:106C6000A2EB030E895C3CBF4CFA0EFC0CEA01015E
:106C7000012D07D0022D2ED04DB917F806C02CEAF1
:106C8000010103E017F806C041EA0C01B95593422F
:106C900038D3B0F908100C449A1AD2B2072A0ED988
:106CA000022D1DD113462178C9432170083BB0F94C
:106CB0000810DBB2072B0C44F5D802F007020AB328
:106CC000134B012D9B5C1AD0022D1CD0D5B9227814
:106CD00022EA030315E017F806C081EA0C01D5E7A4
:106CE000291E18BF01214942C9B213462170083B31
:106CF000B0F90860DBB2072B3444F7D8DDE722781F
:106D000013432370F0BD22785340FAE72C9C0B000C
:106D1000349C0B0070B41446827EBDF80C60022ACD
:106D20000DD0032A18D0012A11D10289E44314445A
:106D300024B203960A46214670BCFFF767BF42891A
:106D40000589E44319441444691A24B209B203962C
:106D5000224670BCFFF716BF45891944691A09B26B
:106D6000E7E730B41446827EBDF80850022A0DD001
:106D7000032A18D0012A11D1E2180489A41A24B2D6
:106D800002950A46214630BCFFF7FCBE0289C94382
:106D90001144E2184489A41A09B224B20295224689
:106DA00030BCFFF733BF4289C943114409B2E7E75A
:106DB0002DE9F8430446806A002842D0A16C01F016
:106DC0005BF9474905222046FFF727FD2189013954
:106DD0002046C9B2FFF7B2FCB4F90A30DE1D48BF45
:106DE00003F10E06D4E90A052389F61013FB06F613
:106DF00015FA86F600283AD094F9301001F04AF9D5
:106E0000A06A036840219B6898470127B542A06AA1
:106E100024D01F2F0CD901F044F994F93010A06A46
:106E200001F038F9A06A036840219B689847012760
:106E3000A06A15F8011B036801379B689847FFB2E9
:106E4000E4E7606A18B104F1380100F08DFB94F9B1
:106E50003600002180B201F032FAB2E701F021F9E8
:106E6000A06A78B3E16CBDE8F84301F005B994F984
:106E70003500012180B201F022FAAE42F0D0606A02
:106E800015F8019B18B1494600F0DCFBF5E708272F
:106E90004FF0800894F9330009EA080180B201F04C
:106EA0000EFA94F93400012180B201F008FA94F945
:106EB0003400002180B201F002FA013F4FEA580885
:106EC000E8D1DAE794F93600012180B201F0F7F950
:106ED000606A18B1BDE8F84300F02CBBBDE8F88348
:106EE000589C0B0008B5024B1B689B68019308BDBA
:106EF0006802030008B5024B1B68DB68019308BDFC
:106F00006802030008B5024B1B685B68019308BD6B
:106F10002C02030008B5024B1B689B68019308BD57
:106F20002C02030008B5024B1B68DB68019308BD07
:106F30002C02030008B5024B1B681B69019308BDB6
:106F40002C02030008B5024B1B685B69019308BD66
:106F50002C02030008B5024B1B681B6B019308BD94
:106F60002C02030008B5024B1B685B68019308BD47
:106F70001802030008B5024B1B68DB68019308BDCB
:106F80001802030008B5024B1B681B69019308BD7A
:106F90001802030008B5024B1B685B69019308BD2A
:106FA0001802030008B5024B1B689B6D019308BDD6
:106FB0001802030008B5024B1B685B6E019308BD05
:106FC0001802030008B5024B1B681B6B019308BD38
:106FD0004802030008B5024B1B685B6B019308BDB8
:106FE0004802030008B5024B1B685B6C019308BDA7
:106FF0004802030008B5024B1B685B69019308BD9A
:107000006402030008B5024B1B68DB68019308BDEE
:107010003C02030008B5024B1B681B69019308BDC5
:107020003C02030008B5024B1B685B69019308BD75
:107030003C02030008B5024B1B689B69019308BD25
:107040003C02030008B5024B1B68DB69019308BDD5
:107050003C02030008B5024B1B681B6A019308BD84
:107060003C02030008B5024B1B689B6A019308BDF4
:107070003C02030008B5024B1B681B6C019308BD62
:107080003C02030008B5024B1B681B68019308BD56
:107090002802030008B5024B1B68DB68019308BD9A
:1070A0002802030008B5024B1B689B69019308BDC9
:1070B0002802030008B5024B1B68DB69019308BD79
:1070C0002802030008B5024B1B681B6A019308BD28
:1070D0002802030008B5024B1B685B6A019308BDD8
:1070E0002802030008B5024B1B689B6A019308BD88
:1070F0002802030008B5024B1B68DB6A019308BD38
:107100002802030008B5024B1B681B6B019308BDE6
:107110002802030008B5024B1B685B6B019308BD96
:107120002802030008B5024B1B681B6C019308BDC5
:107130002802030008B5024B1B689B6C019308BD35
:107140002802030008B5024B1B681B68019308BDA9
:107150003002030008B5024B1B685B69019308BD50
:107160003002030008B5024B1B68DB69019308BDC0
:107170003002030008B5024B1B681B6A019308BD6F
:107180003002030008B5024B1B685B6A019308BD1F
:107190003002030008B5024B1B689B6A019308BDCF
:1071A0003002030008B5024B1B689B6B019308BDBE
:1071B0003002030008B5024B1B68DB6B019308BD6E
:1071C0003002030008B5024B1B681B6C019308BD1D
:1071D0003002030008B5024B1B685B6C019308BDCD
:1071E0003002030008B5024B1B681B68019308BD01
:1071F0004C02030008B5024B1B685B68019308BD95
:107200004C02030008B5024B1B681B69019308BDC3
:107210004C02030008B5024B1B685B69019308BD73
:107220004C02030008B5024B1B689B69019308BD23
:107230004C02030008B5024B1B68DB69019308BDD3
:107240004C02030008B5024B1B681B6A019308BD82
:107250004C02030008B5024B1B685B6B019308BD31
:107260006002030008B5024B1B681B6D019308BD4B
:107270006002030008B5024B1B681B68019308BD40
:107280002002030008B5024B1B685B68019308BD30
:107290002002030008B5024B1B685B69019308BD1F
:1072A0002002030008B5024B1B68DB6A019308BD8E
:1072B0002002030008B5024B1B689B6D019308BDBB
:1072C0002002030008B5034B1B68D3F888300193F4
:1072D00008BD00002002030008B5034B1B68D3F86B
:1072E0009430019308BD00002002030008B5034B51
:1072F0001B68D3F8AC30019308BD000020020300E6
:1073000008B5024B1B685B68019308BD400203008F
:1073100008B5024B1B689B68019308BD400203003F
:1073200008B5024B1B68DB68019308BD40020300EF
:1073300008B5024B1B681B69019308BD400203009E
:1073400008B5024B1B685B69019308BD400203004E
:1073500008B5024B1B689B69019308BD40020300FE
:1073600008B5024B1B68DB69019308BD40020300AE
:1073700008B5024B1B681B6A019308BD400203005D
:1073800008B5024B1B681B6B019308BD400203004C
:1073900008B5024B1B685B6B019308BD40020300FC
:1073A00008B5024B1B681B6C019308BD400203002B
:1073B00008B5024B1B685B6C019308BD40020300DB
:1073C00008B5024B1B689B68019308BD440203008B
:1073D00008B5024B1B685B69019308BD44020300BA
:1073E00008B5024B1B681B6B019308BD44020300E8
:1073F00008B5024B1B68DB6B019308BD4402030018
:1074000008B5024B1B681B68019308BD1C020300F2
:1074100008B5024B1B685B68019308BD1C020300A2
:1074200008B5024B1B685B6A019308BD1C02030090
:1074300008B5024B1B681B6C019308BD1C020300BE
:1074400008B5024B1B685B6C019308BD1C0203006E
:1074500008B501F009F8BDE8084000F025BE10B5F8
:107460000446017009B1FFF7F3FF204610BD00226A
:1074700040681146FFF77CBF002240681146FFF7C5
:1074800087BF40680022FFF77BBF4068002281F081
:107490000101FFF765BF002340681A461946FFF750
:1074A00057BF002340681A461946FFF749BF00221C
:1074B00040681146FFF73CBF002240681146FFF7C5
:1074C00027BF406800220221FFF72ABF002340683F
:1074D0001A46FFF715BF0000024B03225A60024A0A
:1074E0001A60704784E60320689C0B000021FFF7B8
:1074F00071BE0021FFF766BE10B504460846217034
:10750000FFF730FE00236360204610BD13B504462C
:107510000078FFF7EEFF58B9207801904FF6FF7121
:10752000FFF710FE019802B0BDE81040FFF7DEBF84
:1075300002B010BD0078FFF7D9BF0000400830B599
:107540001860002418688842E5B206D90134082C76
:1075500002D040081860F5E70725024B5B5D137009
:1075600030BD00BF9C9C0B002DE9F04306468FB058
:1075700000780C46FFF7BDFF00281BDB357814228E
:10758000002109A801F0C0FC0B23002209A928460C
:10759000ADF82430FFF7F6FD9DF82D3013B19DF8BE
:1075A0002C5055B10027B946B846012523795DB165
:1075B000C3B100200FB0BDE8F083DDF830809DF846
:1075C00034909DF83570F1E7002B35D1A368434521
:1075D00008D18DF820908DF82170BDF82020A38966
:1075E0009A42E6D00023A1688DF80F300A9804ABC8
:1075F0000DF10F02FFF7A2FF217985B989B9A368C0
:1076000043450ED38DF820908DF82170BDF82020D1
:10761000A3899A4205D1049B434502D1C9E70029B9
:10762000F9D100230193637B00939DF80F20237B06
:107630003078FFF7BFFDBCE7CDE900552B462A4661
:107640000121F5E708B50078FFF784FDC0B208BD59
:1076500030B587B004460A9D00950078FFF79AFD83
:107660003DB9207802A9FFF79DFD9DF81430DB0796
:10767000F7D407B030BD10B50446006818B1FFF765
:10768000C7FE0023236010BD38B50C460546FFF742
:10769000F2FF54B12088FFF7B3FE286028B122889A
:1076A0002146BDE8384001F021BC38BD38B5B1F9FC
:1076B00004308380D1F80630C0F806304B8943810E
:1076C0000C460546FFF7D7FF236813B12B60002354
:1076D000236038BDF0B52B4D0B7D04468BB00846BA
:1076E000AF1D002B36D00B681B79002B32D0264BF8
:1076F0000493002202A90430CDE90222FFF7F6FD2F
:10770000DDF80E30C5F8063000B2BDF81230ADF825
:107710000C00A8800299BB802846FFF7B5FF02A89D
:10772000FFF7A9FF00232360A380A37123814FF6F5
:10773000FF736381B5F90430A380D5F80630C4F82F
:107740000630BB88296863812046FFF79DFF2046ED
:107750000BB0F0BD00262023CDE902360B4B009381
:1077600002AA33460A493220FFF77CFD064B054842
:1077700002964FF6F26202A9CDE90323FFF796FFC6
:10778000CDE700BF8CE603200000FFFFAB9C0B00A1
:10779000A49C0B00054B02221A60054B054A9A6017
:1077A0000020C3E90000FFF76DBD00BF98E603208D
:1077B0008CE603200000FFFF024800230360FFF770
:1077C00011BC00BF9CE60320F8B506460D468F1895
:1077D0000024BD420CD0336815F8011B9B6830466D
:1077E0009847031E01DB1C44F3E7002C08BF1C462E
:1077F0002046F8BD08B5FEF773FA08BD03689B681C
:10780000184738B50D210546FFF7F8FF0A21044651
:107810002846FFF7F3FF204438BD38B50546FEF78C
:107820005FFA04462846FFF7ECFF204438BD30B528
:107830008BB00023012A8DF8243098BF0A2209ACAE
:107840000D46B1FBF2F101FB125303F0FF03092BCC
:1078500094BF30333733DBB2AA4204F8013DEFD98D
:107860002146FEF73DFA0BB030BD00002DE9F74F81
:1078700055EC104B06460F4610EE102A10EE100A7B
:107880002B46294601F06EFA40B153493046FEF7C7
:1078900027FA8246504603B0BDE8F08F25F0004934
:1078A0004E4B4FF0FF322046494601F05BFA48B993
:1078B0004A4B4FF0FF322046494601F035FA08B9ED
:1078C0004749E3E7474B4FF060422046294601F025
:1078D0003FFA08B14449D9E7444B4FF06042204693
:1078E000294601F017FA0028F4D10022002320468F
:1078F000294601F00FFAD0B12D213046FFF77EFF67
:1079000005F1004382461D463949DFF8EC904FF0FF
:10791000000B00204FF000085FFA8BF39F4208D95C
:1079200042464B4601F0AEF80BF1010BF4E78246FC
:10793000EAE722462B4600F0C5FD0D46044601F05D
:107940004FFA804600F0FAFE02460B4620462946D2
:1079500000F0B6FD0A2204460D4630464146FFF7C8
:1079600066FF8244002F95D02249DFF88C90304684
:10797000FEF7B6F94FF000088244002F8AD0424645
:107980004B462046294600F053FF04460D4601F0C1
:10799000FFF9B0F1000B1CDA2D213046FFF72EFF66
:1079A000CBF1000103460A2230460193FFF73FFF67
:1079B000019B18448244584600F0D0FE02460B4614
:1079C0002046294600F07CFD013F04460D46FFB2EB
:1079D000D3E759460023E6E7D29C0B00FFFFEF7F79
:1079E000D69C0B00FFFFEF41DA9C0B00FFFFEFC1BD
:1079F0000000E03FD09C0B000000244038B5044656
:107A000010EE100ACDB200F0BBFE41EC100B29467F
:107A10002046BDE83840FFF729BF38B5C9B2054652
:107A2000FFF724FF04462846FFF7EBFE204438BD4D
:107A300038B5044610EE100A0D4600F0A1FE41ECE8
:107A4000100B29462046BDE83840FFF7E6BF2DE978
:107A5000F04186B000AF05460E46381D142114468D
:107A60003B60FFF7DDFC13280ED8391D2846FEF7D2
:107A700037F904461EB12846FFF7C3FE04442046EA
:107A80001837BD46BDE8F08100F1080323F0070375
:107A9000E846ADEB030D2246411C3B686846FFF704
:107AA000BFFC69462846FEF71BF90446C546E1E7D8
:107AB000014B024A1A607047A0E60320DE9C0B00CF
:107AC00008B50020FFF78CFC28B1FFF781FC80F09F
:107AD0000100C0B208BD0120FCE710B50020FFF78F
:107AE00061FA0446A0B9FFF7C5FB012810D1204672
:107AF000FFF7E0FB60B9FFF7E3FF10B9FFF760FCA9
:107B0000F9E7FFF7DDFFBDE810400020FFF74ABAB4
:107B1000204610BD1FB5FFF7E0FF10220021684688
:107B200001F0F2F900216846FFF744FA009805B029
:107B30005DF804FB024B1A68024B1A60704700BFE5
:107B4000C4E00320A4E603200021FFF7A3BB00004C
:107B5000014B00229A607047A8E60320006800F0FD
:107B6000A3BA10B50446016002710AB1FFF7F6FF2F
:107B7000204610BD13B50446019100F075FC019A32
:107B800001462046FFF7EDFF204602B010BD000081
:107B9000014B1860704700BFC8E0032008B50B4BCD
:107BA00043B100F067F903681B699847002801DDBD
:107BB000AFF30080064B43B100F0E0FB03681B69A4
:107BC0009847002801DDAFF3008008BD00000000E9
:107BD0000000000008B5FFF7E1FFFFF7DBF9014BFC
:107BE000186008BD28E703200548064A064908B57D
:107BF000121A01F07BF9054B054A1A6008BD00BF57
:107C000000F4032004F40320F49E0B0000F403208E
:107C10001E1C279A07B5002300931A466FF07701C0
:107C2000FFF75AFB03B05DF804FB000007B543887B
:107C30000A2B08D0502B0BD1094B1B684BB103B05A
:107C40005DF804EB1847FFF7E5FF03B05DF804FBB0
:107C5000002300931A466FF07701FFF73DFBF4E72E
:107C6000BCE6032010B512480021FFF7E9FB114BD9
:107C70001A68114B9A42114B0CBF012200221A7054
:107C800001D0FFF7B1FFFFF76DF9044601F044F9A9
:107C90000B4B13B12046AFF3008000210848FFF7DB
:107CA000A7FBBDE8104007480021FFF70BBB00BF52
:107CB000917B0B0000F403201E1C279AB8E60320DA
:107CC000000000002D7C0B00704710B51821044601
:107CD000FCF7E5F9204610BDF0B5037D062B8DB00D
:107CE0000E4600F104074FF0000412D000F1080521
:107CF00015F8011D0A223046FFF799FDAF420444F2
:107D000019D0002CF4D02E213046FFF777FD044423
:107D1000EEE72F236A4639460A208DF80040FFF728
:107D200069F9684601F026F933680246DB6869465E
:107D300030469847044620460DB0F0BD10B5054BBF
:107D40000446112240F8043B002101F0DDF82046F2
:107D500010BD00BF089D0B000346074A10B543F84D
:107D6000042B01F1100251F8044B43F8044B9142EB
:107D7000F9D10A781A7010BD089D0B0010B59DF856
:107D8000084044EA032343EA024242EA0161042331
:107D90004160037510BD000007B5064B0360CB784A
:107DA00000938B784A780978FFF7E8FF03B05DF815
:107DB00004FB00BF089D0B0041747047704770477B
:107DC00008B50021007CFFF72DFA40EAE07008BDFD
:107DD00008B50121007CFFF725FA40EAE07008BDF4
:107DE00008B5007CFFF716FA20EAE07008BD08B578
:107DF000007CFFF707FA20EAE07008BD13B50446DF
:107E0000007C0191FFF706FA0028019901DC607CF3
:107E100020B1207CFFF70EFA20EAE07002B010BD1E
:107E2000007CFFF70FBA10B514210446FCF737F9B0
:107E3000204610BD10B54FF47A7304460846002161
:107E4000C4E90113044B23600123207463741146B9
:107E5000FFF7C8F9204610BD1C9D0B00007C0022D6
:107E6000FFF7C8B910B514220446002101F04CF800
:107E7000204610BD10B50F4C88B003A8FFF7F2FFE5
:107E80002178BFF35B8F11F001010FD120460191E2
:107E9000FCF714F9019948B103AA0748FFF7CAFF94
:107EA0002046FCF710F9054801F00AF8024808B02E
:107EB00010BD00BFC0E60320C4E60320BD7D0B005B
:107EC000002240681146FFF733BA0022406811468D
:107ED000FFF74EBA002240681146FFF759BA4068D2
:107EE0000022FFF74DBA4068002281F00101FFF740
:107EF00037BA002340681A461946FFF729BA00230B
:107F000040681A461946FFF71BBA0022406811461E
:107F1000FFF7FEB9406800220221FFF701BA0023F3
:107F200040681A46FFF7ECB9084B10B528242246E2
:107F30001846002100F0E8FF054B04804FF0FF32A7
:107F4000426004225A60034A1A6010BDE0E6032032
:107F5000D8E603204C9D0B0070474174704708B56C
:107F6000007CFFF77FF820EAE07008BD08B5007CD0
:107F7000FFF750F820EAE07008BD08B5007CFFF775
:107F800059F840EAE07008BD08B5007CFFF74AF8F0
:107F900040EAE07008BD007CFFF754B837B5457C77
:107FA00004462DB1207C03B0BDE83040FFF72AB86D
:107FB000007C0191FFF756F800280199F2DC284671
:107FC00003B030BD10B514210446FCF768F8204614
:107FD00010BD000010B54FF47A73044608461146F0
:107FE0000022C4E90123044B23600123207463743D
:107FF000FFF740F8204610BD889D0B007047F8B58C
:10800000064615460C468F18BC4206D0336814F855
:10801000011B9B6830469847F6E72846F8BD007C70
:108020000022FFF74FB8007C0021FFF753B8007C17
:108030000021FFF757B8007C0021FFF75BB8007CF8
:108040000021FFF75FB810B514210446FCF727F8AC
:10805000204610BD10B54FF47A730446084600213F
:10806000C4E90113034B236020741146FFF75AF84B
:10807000204610BDB89D0B00007C0022FFF702B81F
:108080000023007C1A461946FFF704B8007C002242
:10809000FFF708B8C9B2FFF7F9BF007C0022FFF76D
:1080A00009B80121FFF7F9BF08B50021007CFFF7EF
:1080B00041F8B0FA80F0400908BD002340681A4634
:1080C000FFF71EB9406800220221FFF729B90022FC
:1080D00040681146FFF71CB9002240681146FFF7BF
:1080E00027B9002340681A461946FFF729B900232B
:1080F00040681A461946FFF72BB940680021FFF780
:108100004FB940680021FFF753B94068002281F061
:108110000101FFF725B940680022FFF731B90022BD
:1081200040681146FFF734B9002240681146FFF756
:108130001FB92DE9F04395B014460D460746FFF7E9
:10814000FDFD00211C220DA8009100F0DDFE402362
:108150000C9320466B460CAA0021FEF7CBFE04468A
:1081600000284BD1024601216868FFF7E1F802219F
:10817000804622466868FFF7DBF8009E814621466C
:10818000002E3BD0002939D17368022B03D00A2B73
:1081900011D0F669F4E7B8F1000FFAD0716906A8BA
:1081A000043107ADFFF7F8FD0FCD3C1D0FC42B6860
:1081B00023704146EDE7B9F1000FEAD0746910224F
:1081C00001A800F0A1FE06238DF8143001AD04F1E2
:1081D00008031834186859682A4603C20833A342B2
:1081E0001546F7D101A906A807ADFFF7B5FD0FCDDC
:1081F0003C1D0FC42B6823704946CAE70098FEF760
:1082000071FE384615B0BDE8F0830000024B034A0A
:108210001A6000225A60704708E70320E09D0B00B7
:10822000232813B502D9002002B010BDA0F10B0322
:10823000022B1AD8174C2178BFF35B8F11F0010184
:108240000BD120460191FBF739FF019928B1124863
:10825000FFF752F92046FBF736FF0F4B1878FEF771
:1082600089FF0028DFD10120DEE7012809D800F0CE
:10827000D7F80021007CFEF74DFF80F00100C0B26E
:10828000D2E709380128EED800F078F8007CFEF734
:10829000E1FEF2E730E1032034E10320232838B582
:1082A00004460D460AD8FF2908D0FFF7B9FF28B1C8
:1082B00029462046BDE83840FEF72CBE38BD38B50B
:1082C00004460D46FEF72EFEFF2810D0062804D8DF
:1082D0004D2323FA00F0C30709D42046FFF7A0FF7F
:1082E00028B129462046BDE83840FEF723BE38BDF8
:1082F00010B50446FEF716FE031FDBB2012B08D9AA
:108300002046FFF78DFF20B12046BDE81040FEF764
:1083100019BE002010BD0D2810B504469CBF0E34B8
:10832000A4B22046FFF77CFF50B103212046FEF7A0
:10833000E9FD032804D12046BDE81040FEF70ABE3F
:10834000002010BD7047000038B5044614252A46A9
:10835000002100F0D9FD25804025074925812846C8
:10836000258200F0A7F804496060284600F0A2F8D2
:10837000E060204638BD00BF149E0B0030B50E4DA6
:108380002978BFF35B8F11F0010487B011D1284623
:10839000FBF794FE68B101A8FFF7D6FF01AA2146BA
:1083A0000648FFF717FE2846FBF78DFE044800F04D
:1083B00087FD024807B030BD10E7032014E7032013
:1083C00045830B007047704738B5202514230446B9
:1083D0000360856005610649284600F06BF8044992
:1083E0006060284600F066F8E060204638BD00BFB7
:1083F000149E0B0038B520251423044603608560C5
:1084000005610649284600F055F804496060284691
:1084100000F050F8E060204638BD00BF149E0B000D
:1084200030B50E4D2978BFF35B8F11F0010487B092
:1084300011D12846FBF742FE68B101A8FFF7C4FF3F
:1084400001AA21460648FFF705FE2846FBF73BFE3A
:10845000044800F035FD024807B030BD2CE703208A
:1084600034E70320C5830B0010B50E4C2378BFF30F
:108470005B8FDB0786B011D42046FBF71FFE68B187
:1084800001A8FFF7B7FF01AA01210748FFF7E2FDA6
:108490002046FBF718FE054800F012FD024806B022
:1084A00010BD00BF30E7032048E70320C7830B005F
:1084B000FBF7F1BDFBF7F1BD81F0004102E000BF29
:1084C00083F0004330B54FEA41044FEA430594EA94
:1084D000050F08BF90EA020F1FBF54EA000C55EACF
:1084E000020C7FEA645C7FEA655C00F0E2804FEAA0
:1084F0005454D4EB5555B8BF6D420CDD2C4480EA82
:10850000020281EA030382EA000083EA010180EAB1
:10851000020281EA0303362D88BF30BD11F0004FFF
:108520004FEA01314FF4801C4CEA113102D0404235
:1085300061EB410113F0004F4FEA03334CEA133370
:1085400002D0524263EB430394EA050F00F0A78088
:10855000A4F10104D5F1200E0DDB02FA0EFC22FA83
:1085600005F2801841F1000103FA0EF2801843FA77
:1085700005F359410EE0A5F120050EF1200E012A68
:1085800003FA0EFC28BF4CF0020C43FA05F3C018A6
:1085900051EBE37101F0004507D54FF0000EDCF11F
:1085A000000C7EEB00006EEB0101B1F5801F1BD3C8
:1085B000B1F5001F0CD349085FEA30004FEA3C0CCC
:1085C00004F101044FEA445212F5800F80F09A80C2
:1085D000BCF1004F08BF5FEA500C50F1000041EBC6
:1085E000045141EA050130BD5FEA4C0C404141EBCA
:1085F0000101013C28BFB1F5801FE9D291F0000FC5
:1086000004BF01460020B1FA81F308BF2033A3F173
:108610000B03B3F120020CDA0C3208DD02F1140C6A
:10862000C2F10C0201FA0CF021FA02F10CE002F1A5
:108630001402D8BFC2F1200C01FA02F120FA0CFC9E
:10864000DCBF41EA0C019040E41AA2BF01EB0451E7
:10865000294330BD6FEA04041F3C1CDA0C340EDCE5
:1086600004F11404C4F1200220FA04F001FA02F328
:1086700040EA030021FA04F345EA030130BDC4F1E6
:108680000C04C4F1200220FA02F001FA04F340EADB
:108690000300294630BD21FA04F0294630BD94F08C
:1086A000000F83F4801306BF81F480110134013D73
:1086B0004EE77FEA645C18BF7FEA655C29D094EAE4
:1086C000050F08BF90EA020F05D054EA000C04BF62
:1086D0001946104630BD91EA030F1EBF002100204D
:1086E00030BD5FEA545C05D14000494128BF41F0EC
:1086F000004130BD14F580043CBF01F5801130BD50
:1087000001F0004545F0FE4141F470014FF00000DA
:1087100030BD7FEA645C1ABF194610467FEA655C8B
:108720001CBF0B46024650EA013406BF52EA03352D
:1087300091EA030F41F4002130BD00BF90F0000F1B
:1087400004BF0021704730B54FF4806404F1320457
:108750004FF000054FF0000150E700BF90F0000F10
:1087600004BF0021704730B54FF4806404F1320437
:1087700010F0004548BF40424FF000013EE700BF07
:1087800042004FEAE2014FEA31014FEA02701FBF97
:1087900012F07F4393F07F4F81F06051704732F0C9
:1087A0007F4208BF704793F07F4F04BF41F4002120
:1087B000704730B54FF4607401F0004521F000417E
:1087C0001CE700BF50EA010208BF704730B54FF008
:1087D00000050AE050EA010208BF704730B511F009
:1087E000004502D5404261EB41014FF4806404F141
:1087F00032045FEA915C3FF4D8AE4FF003025FEAC7
:10880000DC0C18BF03325FEADC0C18BF033202EB4A
:10881000DC02C2F1200300FA03FC20FA02F001FAA4
:1088200003FE40EA0E0021FA02F11444BDE600BF47
:1088300070B54FF0FF0C4CF4E06C1CEA11541DBFF6
:108840001CEA135594EA0C0F95EA0C0F00F0DEF8C1
:108850002C4481EA030621EA4C5123EA4C5350EAA6
:10886000013518BF52EA033541F4801143F48013F7
:1088700038D0A0FB02CE4FF00005E1FB02E506F088
:108880000042E0FB03E54FF00006E1FB03569CF0DD
:10889000000F18BF4EF0010EA4F1FF04B6F5007FE3
:1088A00064F5407404D25FEA4E0E6D4146EB060655
:1088B00042EAC62141EA55514FEAC52040EA5E50DE
:1088C0004FEACE2EB4F1FD0C88BFBCF5E06F1ED888
:1088D000BEF1004F08BF5FEA500E50F1000041EBBF
:1088E000045170BD06F0004646EA010140EA02006C
:1088F00081EA0301B4EB5C04C2BFD4EB0C0541EA8E
:10890000045170BD41F480114FF0000E013C00F3A2
:10891000AB8014F1360FDEBF002001F0004170BDC6
:10892000C4F10004203C35DA0C341BDC04F11404DF
:10893000C4F1200500FA05F320FA04F001FA05F26B
:1089400040EA020001F0004221F0004110EBD37038
:1089500021FA04F642EB06015EEA430E08BF20EA64
:10896000D37070BDC4F10C04C4F1200500FA04F307
:1089700020FA05F001FA04F240EA020001F0004199
:1089800010EBD37041F100015EEA430E08BF20EA0C
:10899000D37070BDC4F1200500FA05F24EEA020E54
:1089A00020FA04F301FA05F243EA020321FA04F083
:1089B00001F0004121FA04F220EA020000EBD3703A
:1089C0005EEA430E08BF20EAD37070BD94F0000F3A
:1089D0000FD101F00046400041EB010111F4801F6E
:1089E00008BF013CF7D041EA060195F0000F18BF1F
:1089F000704703F00046520043EB030313F4801F5B
:108A000008BF013DF7D043EA0603704794EA0C0F14
:108A10000CEA135518BF95EA0C0F0CD050EA41062A
:108A200018BF52EA4306D1D181EA030101F00041A7
:108A30004FF0000070BD50EA410606BF10461946CF
:108A400052EA430619D094EA0C0F02D150EA0136DB
:108A500013D195EA0C0F05D152EA03361CBF10461C
:108A600019460AD181EA030101F0004141F0FE41BB
:108A700041F470014FF0000070BD41F0FE4141F43F
:108A8000780170BD70B54FF0FF0C4CF4E06C1CEA3F
:108A900011541DBF1CEA135594EA0C0F95EA0C0FF4
:108AA00000F0A7F8A4EB050481EA030E52EA0335AF
:108AB0004FEA013100F088804FEA03334FF08055D0
:108AC00045EA131343EA12634FEA022245EA1115FD
:108AD00045EA10654FEA00260EF000419D4208BFAE
:108AE000964244F1FD0404F5407402D25B084FEA5B
:108AF0003202B61A65EB03055B084FEA32024FF407
:108B000080104FF4002CB6EB020E75EB030E22BF63
:108B1000B61A754640EA0C005B084FEA3202B6EB23
:108B2000020E75EB030E22BFB61A754640EA5C00D2
:108B30005B084FEA3202B6EB020E75EB030E22BF62
:108B4000B61A754640EA9C005B084FEA3202B6EB63
:108B5000020E75EB030E22BFB61A754640EADC0022
:108B600055EA060E18D04FEA051545EA16754FEA84
:108B700006164FEAC30343EA52734FEAC2025FEAA2
:108B80001C1CC0D111F4801F0BD141EA00014FF031
:108B900000004FF0004CB6E711F4801F04BF014302
:108BA0000020B4F1FD0C88BFBCF5E06F3FF6AFAE1E
:108BB000B5EB030C04BFB6EB020C5FEA500C50F1AE
:108BC000000041EB045170BD0EF0004E4EEA113131
:108BD00014EB5C04C2BFD4EB0C0541EA045170BD38
:108BE00041F480114FF0000E013C90E645EA060E7C
:108BF0008DE60CEA135594EA0C0F08BF95EA0C0FAA
:108C00003FF43BAF94EA0C0F0AD150EA01347FF4F1
:108C100034AF95EA0C0F7FF425AF104619462CE7C8
:108C200095EA0C0F06D152EA03353FF4FDAE10462B
:108C3000194622E750EA410618BF52EA43067FF47C
:108C4000C5AE50EA41047FF40DAF52EA43057FF40C
:108C5000EBAE12E74FF0FF3C06E000BF4FF0010C17
:108C600002E000BF4FF0010C4DF804CD4FEA410C7B
:108C70007FEA6C5C4FEA430C18BF7FEA6C5C1BD048
:108C800001B050EA410C0CBF52EA430C91EA030FC9
:108C900002BF90EA020F0020704710F1000F91EA26
:108CA000030F58BF994208BF90422CBFD8176FEAF4
:108CB000E37040F0010070474FEA410C7FEA6C5CC2
:108CC00002D150EA013C07D14FEA430C7FEA6C5CC9
:108CD000D6D152EA033CD3D05DF8040B704700BFF5
:108CE0008446104662468C461946634600E000BF43
:108CF00001B5FFF7B7FF002848BF10F1000F01BD15
:108D00004DF808EDFFF7F4FF0CBF012000205DF8DF
:108D100008FB00BF4DF808EDFFF7EAFF34BF012064
:108D200000205DF808FB00BF4DF808EDFFF7E0FFFD
:108D300094BF012000205DF808FB00BF4DF808ED4E
:108D4000FFF7CEFF94BF012000205DF808FB00BFB5
:108D50004DF808EDFFF7C4FF34BF012000205DF897
:108D600008FB00BF4FEA410C7FEA6C5C02D150EA7D
:108D7000013C0AD14FEA430C7FEA6C5C02D152EA13
:108D8000033C02D14FF0000070474FF001007047E4
:108D90004FEA410212F5001215D211D56FF4787323
:108DA000B3EB625212D94FEAC12343F0004343EAC6
:108DB000505311F0004F23FA02F018BF40427047A1
:108DC0004FF00000704750EA013005D111F000402B
:108DD00008BF6FF0004070474FF00000704700BFC1
:108DE0004A0011D212F5001211D20DD56FF478732A
:108DF000B3EB62520ED44FEAC12343F0004343EA7F
:108E0000505323FA02F070474FF00000704750EAC9
:108E1000013002D14FF0FF3070474FF00000704733
:108E20004FEA4102B2F1E04324BFB3F5001CDCF18C
:108E3000FE5C0DD901F0004C4FEAC0024CEA5070C4
:108E4000B2F1004F40EB830008BF20F001007047F3
:108E500011F0804F21D113F13872BCBF01F00040F6
:108E6000704741F480114FEA5252C2F11802C2F128
:108E7000200C10FA0CF320FA02F018BF40F00100A9
:108E80004FEAC1234FEAD32303FA0CFC40EA0C005B
:108E900023FA02F34FEA4303CCE77FEA625307D198
:108EA00050EA01331EBF4FF0FE4040F440007047CF
:108EB00001F0004040F0FE4040F40000704700BF69
:108EC000002301461A46184600F05CB810B5013977
:108ED0000244904201D1002005E0037811F8014FCF
:108EE000A34201D0181B10BD0130F2E70A449142A1
:108EF00000F1FF3300D1704710B511F8014B03F8B2
:108F0000014F9142F9D110BD02440346934200D172
:108F1000704703F8011BF9E738B5104B1D68AB6BC0
:108F20000446B3B91820FEF76BFA0246A86320B9CD
:108F30000B4B0C484221FEF77BFA0B490B4BC0E967
:108F400000130B4B83600B23838100210120C2E9B6
:108F50000401AB6B00221C615A6138BDC8E00320DC
:108F6000159E0B002C9E0B000E33CDAB34126DE61C
:108F7000ECDE0500034613F8012B002AFBD1181A7A
:108F8000013870472DE9F843DFF8B8800646D8F875
:108F900000001F460D46914600F056F8254B1C6810
:108FA00034B9254C1C60254B13B11B68C4F88830BC
:108FB00063681F2B07DDD8F8000000F047F84FF07A
:108FC000FF30BDE8F8834EB3D4F8880088B91C4B55
:108FD00023B9D8F8000000F038F8F0E74FF48470B7
:108FE000FEF70EFA0028F4D00023C0E94033C4F89D
:108FF0008800636840F8239001229A4000EB8301C7
:10900000D0F800311343C0F80031022EC1F880704F
:1090100002BFD0F804311343C0F804316368D8F8B4
:1090200000005A1C0233626044F8235000F00EF82E
:109030000020C6E7E8E703205CE70320000000000B
:1090400001740B002CE1032070477047704700004B
:1090500021400B005D400B0085400B0089400B0058
:109060000000000043616C6C206F6E2070757265AB
:10907000207669727475616C0064656661756C74E4
:1090800020004D5342004C5342003C53504953651D
:109090007474696E67732064656661756C743E00F4
:1090A0003C53504953657474696E6773202573256A
:1090B00075202573204D4F444525753E004D617840
:1090C000626F74697820546573740054696D653AF1
:1090D000200044697374616E636528696E293A20C3
:1090E0000064697374616E63652E747874006661E0
:1090F000696C656420746F206F70656E20636172A7
:1091000064006F70656E696E6720746573742E7489
:10911000787420666F722077726974652066616961
:109120006C6564002C00676F696E6720746F207334
:109130006C656570004665656C696E672072657365
:10914000746C6573730000000000000000000000F4
:1091500095410B00CD400B001D410B0000000000AD
:1091600000000000E9400B002B410B005F410B00A9
:1091700017410B00CF400B00F7400B00F1400B00F4
:10918000EB400B0000000000003E5B4F5B3E3E6B7F
:109190004F6B3E1C3E7C3E1C183C7E3C181C577D91
:1091A000571C1C5E7F5E1C00183C1800FFE7C3E7DD
:1091B000FF0018241800FFE7DBE7FF30483A060EEF
:1091C0002629792926407F050507407F05253F5A36
:1091D0003CE73C5A7F3E1C1C08081C1C3E7F1422A6
:1091E0007F22145F5F005F5F06097F017F00668951
:1091F000956A606060606094A2FFA29408047E0497
:109200000810207E201008082A1C08081C2A0808BC
:109210001E101010100C1E0C1E0C30383E3830067C
:109220000E3E0E06000000000000005F0000000778
:10923000000700147F147F14242A7F2A12231308A6
:10924000646236495620500008070300001C224182
:10925000000041221C002A1C7F1C2A08083E080826
:1092600000807030000808080808000060600020D6
:10927000100804023E5149453E00427F40007249B9
:109280004949462141494D331814127F102745455D
:1092900045393C4A49493141211109073649494973
:1092A00036464949291E00001400000040340000E1
:1092B000000814224114141414140041221408024A
:1092C000015909063E415D594E7C1211127C7F49BD
:1092D0004949363E414141227F4141413E7F494912
:1092E00049417F090909013E414151737F0808083E
:1092F0007F00417F41002040413F017F081422410F
:109300007F404040407F021C027F7F0408107F3E68
:109310004141413E7F090909063E4151215E7F09D5
:10932000192946264949493203017F01033F40403C
:10933000403F1F2040201F3F4038403F6314081427
:109340006303047804036159494D43007F4141415F
:109350000204081020004141417F04020102044040
:1093600040404040000307080020545478407F28C4
:109370004444383844444428384444287F385454BA
:10938000541800087E090218A4A49C787F080404DD
:109390007800447D40002040403D007F102844007C
:1093A00000417F40007C047804787C08040478380D
:1093B00044444438FC1824241818242418FC7C083D
:1093C000040408485454542404043F44243C4040BA
:1093D000207C1C2040201C3C4030403C442810286D
:1093E000444C9090907C4464544C440008364100B6
:1093F0000000770000004136080002010204023C30
:109400002623263C1EA1A161123A4040207A3854FE
:109410005455592155557941225454784221555477
:10942000784020545579400C1E52721239555555CA
:1094300059395454545939555454580000457C41B5
:109440000002457D420001457C407D1211127DF0F5
:10945000282528F07C545545002054547C547C0A1F
:10946000097F4932494949323A4444443A324A48E8
:1094700048303A4141217A3A42402078009DA0A0EC
:109480007D3D4242423D3D4040403D3C24FF24243E
:10949000487E4943662B2FFC2F2BFF0929F620C05D
:1094A000887E090320545479410000447D413048AE
:1094B000484A32384040227A007A0A0A727D0D19F1
:1094C000317D2629292F28262929292630484D4053
:1094D00020380808080808080808382F10C8ACBA4F
:1094E0002F102834FA00007B000008142A142222CE
:1094F000142A14085500550055AA55AA55AAFF5517
:10950000FF55FF000000FF00101010FF001414149E
:10951000FF001010FF00FF1010F010F0141414FCE6
:10952000001414F700FF0000FF00FF1414F404FC03
:10953000141417101F10101F101F1414141F0010E4
:109540001010F0000000001F101010101F1010105D
:1095500010F010000000FF1010101010101010106C
:10956000FF10000000FF140000FF00FF00001F10AC
:10957000170000FC04F414141710171414F404F466
:109580000000FF00F714141414141414F700F71457
:109590001414171410101F101F141414F4141010A6
:1095A000F010F000001F101F0000001F140000004A
:1095B000FC140000F010F01010FF10FF141414FF42
:1095C000141010101F00000000F010FFFFFFFFFF3D
:1095D000F0F0F0F0F0FFFFFF0000000000FFFF0FD1
:1095E0000F0F0F0F3844443844FC4A4A4A347E0275
:1095F000020606027E027E026355494163384444F6
:109600003C04407E201E2006027E020299A5E7A5AA
:10961000991C2A492A1C4C7201724C304A4D4D301B
:109620003048784830BC625A463D3E494949007E40
:109630000101017E2A2A2A2A2A44445F44444051D7
:109640004A444040444A51400000FF0103E080FF8B
:10965000000008086B6B083612362436060F090F17
:1096600006000018180000001010003040FF010133
:10967000001F01011E00191D1712003C3C3C3C005C
:1096800000000000000000000000000000000000DA
:1096900000000000454D0B00C9770B00A5400B00F2
:1096A0004B470B004D470B007F470B005B470B0000
:1096B0006D470B008D460B004B470B0077490B00A5
:1096C00075490B0097470B00D5470B000F480B005F
:1096D00055480B0071480B00F5480B0000000000D6
:1096E00000000000554E0B00754E0B00454D0B0061
:1096F000C9770B001D660B004B470B004D470B0055
:109700007F470B005B470B006D470B008D460B003E
:109710004B470B0077490B00BB670B00636D0B00D9
:10972000156D0B000F480B0055480B0071480B00DE
:10973000F5480B0000000000000180000000000060
:10974000000000000380000000000000000000078F
:10975000C000000000000000000007C00000000082
:1097600000000000000FC00000000000000000002A
:109770001FE00000000000000000001FE0000000EB
:109780000000000000003FE00000000000000000BA
:10979000003FF00000000000000000007FF000002B
:1097A00000000000001FF87FF00000000000000033
:1097B0003FFE7FF0000000000000003FFF7FF00050
:1097C0000000000000001FFFFBE0000000000000A0
:1097D000000FFFF9FFC00000000000000FFFF9FFBD
:1097E000F800000000000007FFF1FFFF000000008C
:1097F000000003FC73FFFF80000000000001FE3F3B
:10980000FFFF80000000000000FF1E0FFF000000AF
:10981000000000007FFE1FFC000000000000003F71
:10982000FFFFF8000000000000000FDFFFE0000075
:1098300000000000001F19FFC00000000000000031
:109840003F3CFF00000000000000007E7CF80000AC
:109850000000000000007FFE7C000000000000000F
:1098600000FFFFFC0000000000000000FFFFFE0002
:1098700000000000000000FFFFFE000000000000EC
:109880000001FFEFFE0000000000000001FFCFFE1E
:109890000000000000000003FF07FE0000000000C1
:1098A000000003FC07FE0000000000000003F003BE
:1098B000FE00000000000000018000FE000000002B
:1098C0000000000000007E0000000000000000001A
:1098D000003E000000000000000000000C0000003E
:1098E000000000078000FC000003C00000000780AB
:1098F00001FC000003C0000000078001FC00000321
:10990000C0000000078001E00000001E000000070A
:109910008001E00000001E007FE3F79FF9FDE7787B
:109920007BDFC0FFF7FFBFFDFDFF787BDFC0FFF7E8
:10993000FFBFFDFDFF787BDFC0F0F787BC3DE1FF97
:10994000787BDE00F0F787BC3DE1F0787BDE00003D
:10995000F787803DE1E0787BDE007FF7879FFDE1C0
:10996000E0787BDE00FFF787BFFDE1E0787BDE007B
:10997000F0F787BC3DE1E0787BDE00F0F787BC3D87
:10998000E1E0787BDE00F0F787BC3DE1E0787BDE4C
:1099900000FFF7FFBFFDE1E07FFBDFC0FFF7FFBF88
:1099A000FDE1E07FFBDFC07CF3F39F3DE1E03E7B28
:1099B000CFC00000000000000000000000FFFFFF1B
:1099C000FFFFFFFFFFFFFFC0FFFFFFFFFD68DB1191
:1099D0001A31C0FFFFFFFFFD2B5AFB6AEFC0FFFFEC
:1099E000FFFFFD4B5B3B1A33C0FFFFFFFFFD6B5BCF
:1099F000DB6AFDC000006000000000000000000005
:109A00000000000000E00000000000000000000076
:109A100000000001E0000000000000000000000065
:109A2000000001F000000000000000000000000045
:109A30000003F00000000000000000000000000033
:109A400007F0000000000000000000000000000718
:109A5000F8000000000000000000000000000FF807
:109A600000000003C0007E000001E0007F0FF8004E
:109A7000000003C000FE000001E000FFEFF800005E
:109A80000003C000FE000001E000FFFFF80000003E
:109A900003C000F00000000F007FFE7FC000000345
:109AA000C000F00000000F003FFE7FF83FF1FBCF49
:109AB000FCFEF3BC3DEFE01FFE7FFF7FFBFFDFFE00
:109AC000FEFFBC3DEFE01FC6FFFF7FFBFFDFFEFE9A
:109AD000FFBC3DEFE00FE3C7FE787BC3DE1EF0FF67
