:02000002D0002C
:1040000000400D00E84D0D00000006000C00050109
:084010000401FD08000000009E
:04401800D44B0D0078
:10401C0009480A49884208B505D0094A824202D0AB
:10402C00121A00F029FD0748074A0021121A00F065
:10403C0031FD014808BD00BF60E50320544D0D0063
:10404C00CCE50320CCE50320EDE7032070B5074E4B
:10405C00074C00F0D7FCA41BA4080025A54200D1F6
:10406C0070BD56F8043B98470135F7E7304D0D000D
:10407C00504D0D0000F011B808B500F00FF8BDE878
:10408C00084000F077BC00F02FB90078B0FA80F04F
:10409C004009704701230370704770477047000058
:1040AC0008B5024B1B685B6C019308BD480203000A
:1040BC0008B5024B1B685B68019308BD180203002E
:1040CC0008B5024B1B685B69019308BD180203001D
:1040DC0008B5024B1B685B69019308BD64020300C1
:1040EC0008B5024B1B689B68019308BD680203006E
:1040FC0008B5024B1B68DB68019308BD680203001E
:10410C0008B5024B1B681B68019308BD3C020300F9
:10411C0008B5024B1B68DB68019308BD3C02030029
:10412C0008B5024B1B681B69019308BD3C020300D8
:10413C0008B5024B1B685B69019308BD3C02030088
:10414C0008B5024B1B689B69019308BD3C02030038
:10415C0008B5024B1B68DB69019308BD3C020300E8
:10416C0008B5024B1B689B6A019308BD3C02030017
:10417C0008B5024B1B681B68019308BD4C02030079
:10418C0008B5024B1B681B69019308BD4C02030068
:10419C0008B5024B1B685B69019308BD4C02030018
:1041AC0008B5024B1B689B69019308BD4C020300C8
:1041BC0008B5024B1B68DB69019308BD4C02030078
:1041CC0008B5024B1B681B6A019308BD4C02030027
:1041DC0008B5024B1B685B68019308BD2002030005
:1041EC0008B5034B1B68D3F88830019308BD000059
:1041FC002002030008B5034B1B68D3F894300193DD
:10420C0008BD00002002030008B5024B1B68DB6BE5
:10421C00019308BD4402030008B5024B1B685B68A0
:10422C00019308BD4002030008B5024B1B689B6854
:10423C00019308BD4002030008B5024B1B68DB6804
:10424C00019308BD4002030008B5024B1B681B69B3
:10425C00019308BD4002030008B5024B1B685B6963
:10426C00019308BD4002030008B5024B1B689B6913
:10427C00019308BD4002030008B5024B1B68DB69C3
:10428C00019308BD4002030008B5024B1B681B6A72
:10429C00019308BD4002030008B5024B1B681B6B61
:1042AC00019308BD4002030008B5024B1B685B6B11
:1042BC00019308BD4002030008B5024B1B681B6C40
:1042CC00019308BD4002030008B5024B1B685B6CF0
:1042DC00019308BD4002030008B5024B1B681B6824
:1042EC00019308BD1C02030008B5024B1B685B68F8
:1042FC00019308BD1C02030008B5024B1B685B6CE4
:10430C00019308BD1C020300024800230360FFF761
:10431C00C7BE00BFCCE50320002240681146FFF762
:10432C00B3BF002240681146FFF7BEBF40680022B1
:10433C00FFF7B2BF4068002281F00101FFF79CBF7C
:10434C00002340681A461946FFF78EBF00234068C9
:10435C001A461946FFF780BF002240681146FFF746
:10436C0073BF002240681146FFF75EBF4068002211
:10437C000221FFF761BF002340681A46FFF74CBFCC
:10438C00024B03225A60024A1A607047D0E50320A0
:10439C00F04B0D00704710B51821044600F064FB7B
:1043AC00204610BDF0B5037D062B8DB00E4600F1F6
:1043BC0004074FF0000412D000F1080515F8011D98
:1043CC000A22304600F03BF9AF42044419D0002CCD
:1043DC00F4D02E21304600F02FF90444EEE72F23C1
:1043EC006A4639460A208DF80040FFF771FE684690
:1043FC0000F07CFB33680246DB6869463046984720
:10440C00044620460DB0F0BD10B5054B04461122F4
:10441C0040F8043B002100F03DFB204610BD00BFDE
:10442C002C4C0D000346074A10B543F8042B01F140
:10443C00100251F8044B43F8044B9142F9D10A781D
:10444C001A7010BD2C4C0D0010B59DF8084044EAB4
:10445C00032343EA024242EA0161042341600375EB
:10446C0010BD13B5CB7800938B784A780978FFF799
:10447C00EBFF02B010BD0000014B024A1A607047FE
:10448C00D8E50320384C0D00002340681A46FFF78E
:10449C00C3BE406800220221FFF7CEBE0022406856
:1044AC001146FFF7C1BE002240681146FFF7CCBE93
:1044BC00002340681A461946FFF7CEBE0023406819
:1044CC001A461946FFF7D0BE40680021FFF7F4BE2C
:1044DC0040680021FFF7F8BE4068002281F001011E
:1044EC00FFF7CABE40680022FFF7D6BE0022406824
:1044FC001146FFF7D9BE002240681146FFF7C4BE33
:10450C002DE9F043002495B016460D460746FFF7FB
:10451C007BFF214618220EA8009400F0BBFA402322
:10452C00CDE90C3421466B460CAA3046FFF7E0FD72
:10453C000446002846D1024601216868FFF784FE34
:10454C000221804622466868FFF77EFE009E814667
:10455C002146002E36D0002934D17368022B03D0AB
:10456C000A2B0BD0F669F4E7B8F1000F04D071698F
:10457C0038460431FFF775FF4146F3E7B9F1000FF8
:10458C0001D14946EEE77469102201A800F082FAC5
:10459C0006238DF8143001AD04F1080318341868A3
:1045AC0059682A4603C20833A3421546F7D101A91C
:1045BC0006A807ADFFF736FF0FCD3C1D0FC42B68C7
:1045CC002370DEE70098FFF78BFD384615B0BDE889
:1045DC00F0830000024B034A1A6000225A607047B5
:1045EC00DCE50320444C0D00F8B506460D468F184B
:1045FC000024BD420CD0336815F8011B9B68304673
:10460C009847031E01DB1C44F3E7002C08BF1C4633
:10461C002046F8BD13B50446084659B1019100F087
:10462C0065FA23680199DB680246204602B0BDE8B2
:10463C001040184702B010BD03689B68184730B58E
:10464C008BB000238DF82430012A98BF0A2209ACC4
:10465C000D46B1FBF2F101FB125303F0FF03092BE2
:10466C0094BF30333733DBB2AA4204F8013DEFD9A3
:10467C002146FFF7CFFF0BB030BD0000014B0022ED
:10468C009A607047E4E50320054B02221A60054B43
:10469C00054A9A600020186098809871FFF798BDC1
:1046AC0000E60320F4E503200000FFFF024B1A682C
:1046BC00024B1A60704700BF60E5032004E603203C
:1046CC00704741747047704708B5007CFFF748FD90
:1046DC0020EAE07008BD08B5007CFFF721FD20EA58
:1046EC00E07008BD08B5007CFFF72AFD40EAE070D9
:1046FC0008BD08B5007CFFF71BFD40EAE07008BD63
:10470C00007CFFF725BD37B5457C04462DB1207CD8
:10471C0003B0BDE83040FFF7FBBC007C0191FFF714
:10472C001FFD00280199F2DC284603B030BD10B5FE
:10473C001421044600F098F9204610BD10B54FF036
:10474C00000C0446084611464FF47A72C4E901C2C3
:10475C00044A22600122207462741A46FFF7D0FCCE
:10476C00204610BD9C4C0D0013B50D4C2178BFF3A9
:10477C005B8F11F0010110D120460191FFF785FCF0
:10478C00019950B1074B084A0848FFF7D7FF20465C
:10479C00FFF780FC064800F069F9044802B010BD30
:1047AC0008E6032090E603200CE6032014E7032020
:1047BC00D3460D00417470477047704708B500210F
:1047CC00007CFFF7EDFC40EAE07008BD08B5012164
:1047DC00007CFFF7E5FC40EAE07008BD08B5007C02
:1047EC00FFF7D6FC20EAE07008BD08B5007CFFF7A7
:1047FC00C7FC20EAE07008BD13B50446007C0191AB
:10480C00FFF7C6FC0028019901DC607C20B1207CFC
:10481C00FFF7CEFC20EAE07002B010BD007CFFF781
:10482C00CFBC10B51421044600F01EF9204610BD73
:10483C0010B54FF47A73044608460021C4E90113FD
:10484C00044B23600123207463741146FFF790FC22
:10485C00204610BDCC4C0D0010B51422044600218E
:10486C0000F018F9204610BD10B50F4C88B003A805
:10487C00FFF7F2FF2178BFF35B8F11F001010FD12D
:10488C0020460191FFF701FC019948B103AA0748A2
:10489C00FFF7CEFF2046FFF7FDFB054800F0E6F8DA
:1048AC00024808B010BD00BF28E703202CE7032006
:1048BC00C5470D00002240681146FFF7C5BC002219
:1048CC0040681146FFF7E0BC002240681146FFF734
:1048DC00EBBC40680022FFF7DFBC4068002281F08F
:1048EC000101FFF7C9BC002340681A461946FFF7BF
:1048FC00BBBC002340681A461946FFF7ADBC00222A
:10490C0040681146FFF790BC406800220221FFF777
:10491C0093BC002340681A46FFF77EBC024B04226E
:10492C005A60024A1A60704740E70320FC4C0D00A5
:10493C00014B1860704700BF64E5032008B50B4BB2
:10494C0043B1FFF791FF03681B699847002801DD0D
:10495C00AFF30080064B43B1FFF706FF03681B69FA
:10496C009847002801DDAFF3008008BD000000006F
:10497C000000000008B5FFF7E1FFFFF7A1FB014BBA
:10498C00186008BD50E703200548064A064908B5DB
:10499C00121A00F071F8054B054A1A6008BD00BFE9
:1049AC0000F4032004F40320504D0D0000F4032008
:1049BC001E1C279A07B5002300931A466FF0770147
:1049CC00FFF718FC03B05DF804FB000007B5438843
:1049DC000A2B08D0502B0BD1094B1B684BB103B0E1
:1049EC005DF804EB1847FFF7E5FF03B05DF804FB37
:1049FC00002300931A466FF07701FFF7FBFBF4E7F7
:104A0C004CE7032010B512480021FFF775FC114B41
:104A1C001A68114B9A42114B0CBF012200221A70DA
:104A2C0001D0FFF7B1FFFFF743FB044600F03AF863
:104A3C000B4B13B12046AFF3008000210848FFF761
:104A4C00E3FBBDE8104007480021FFF7C9BB00BFDE
:104A5C003D490D0000F403201E1C279A48E7032053
:104A6C0000000000D9490D00FFF70DBB00230146E3
:104A7C001A46184600F042B80A44914200F1FF333E
:104A8C0000D1704710B511F8014B03F8014F91425A
:104A9C00F9D110BD02440346934200D1704703F88C
:104AAC00011BF9E738B50D4B1D68AB6B04467BB9A0
:104ABC001820FFF711FC0A4A0A4BA863C0E900232F
:104ACC00094B83600B23838101220023C0E904235B
:104ADC00AB6B00221C615A6138BD00BF64E503203A
:104AEC000E33CDAB34126DE6ECDE0500034613F845
:104AFC00012B002AFBD1181A013870472DE9F84315
:104B0C00DFF8B8800646D8F800001F460D469146DF
:104B1C0000F056F8254B1C6834B9254C1C60254B0D
:104B2C0013B11B68C4F8883063681F2B07DDD8F8F5
:104B3C00000000F047F84FF0FF30BDE8F8834EB3AB
:104B4C00D4F8880088B91C4B23B9D8F8000000F0C1
:104B5C0038F8F0E74FF48470FFF7BEFB0028F4D070
:104B6C000023C0E94033C4F88800636840F8239000
:104B7C0001229A4000EB8301D0F800311343022E3E
:104B8C00C0F80031C1F8807002BFD0F804311A436C
:104B9C00C0F804216368D8F800005A1C0233626024
:104BAC0044F8235000F00EF80020C6E7E0E703209D
:104BBC0054E7032000000000E5420D00C8E5032087
:104BCC0070477047704700001D400D0059400D00A4
:104BDC0081400D0085400D00000000000000000029
:104BEC000000000083430D0079430D006F430D005E
:104BFC0065430D0059430D004D430D00D5440D0088
:104C0C00DD440D0041430D0039430D002F430D00D1
:104C1C0025430D000D450D000000000000000000B4
:104C2C00B1430D00A1430D00A3430D006170700052
:104C3C00000000000000000095440D009F440D0092
:104C4C00A9440D00B3440D00BD440D00C9440D0032
:104C5C00D5440D00DD440D00E5440D00F1440D007C
:104C6C00F9440D0003450D000D450D0025592D256A
:104C7C006D2D25645425483A254D3A2553257A0047
:104C8C0061736374696D6500000000000000000032
:104C9C00CD460D003B470D0013470D00F5450D00AB
:104CAC00E3460D00FF460D00F1460D000D470D00CB
:104CBC00CF460D00D5460D0000000000000000009E
:104CCC00C7470D002F480D0005480D00F5450D0098
:104CDC00F7470D00C9470D00D9470D0029480D00B5
:104CEC00E9470D00C1470D00000000000000000066
:104CFC001F490D0015490D000B490D00C1480D0051
:104D0C00FF480D00F3480D00D5440D00DD440D00A7
:104D1C00E7480D00DF480D00D5480D00CB480D00CD
:104D2C000D450D0015430D008D430D0085440D0000
:104D3C00E1450D0089460D0095460D00B9460D0064
:044D4C0029490D00E4
:044D5000000000005F
:104D54008C4C0D0068E503200000000000000000FA
:104D6400000000000000000000000000000000003F
:104D7400000000000000000000000000000000002F
:104D8400000000000000000000000000000000001F
:104D9400000000000000000000000000000000000F
:104DA40000000000000000000000000000000000FF
:0C4DB4000000000000000000E5E7032004
:104DC000FFFFFFFF00000102030405060708090AB0
:104DD0000B0C0D0E0F101112131415161718191AAB
:084DE0001B1C1D1E1F202800F2
:044DE80078563412B3
:04000003D000401CCD
:00000001FF
